{"contracts/RDORegistry.sol":{"RDORegistry":{"abi":[{"inputs":[],"stateMutability":"nonpayable","type":"constructor"},{"anonymous":false,"inputs":[{"indexed":true,"internalType":"uint256","name":"rdoId","type":"uint256"},{"indexed":true,"internalType":"address","name":"actor","type":"address"},{"indexed":false,"internalType":"bytes32","name":"actionHash","type":"bytes32"}],"name":"ActionAllowed","type":"event"},{"anonymous":false,"inputs":[{"indexed":true,"internalType":"uint256","name":"rdoId","type":"uint256"},{"indexed":true,"internalType":"address","name":"actor","type":"address"},{"indexed":false,"internalType":"bytes32","name":"actionHash","type":"bytes32"},{"indexed":false,"internalType":"string","name":"reason","type":"string"}],"name":"ActionRefused","type":"event"},{"anonymous":false,"inputs":[{"indexed":true,"internalType":"uint256","name":"rdoId","type":"uint256"},{"indexed":true,"internalType":"address","name":"creator","type":"address"},{"indexed":false,"internalType":"bytes32","name":"rulesHash","type":"bytes32"},{"indexed":false,"internalType":"string","name":"metadataCID","type":"string"}],"name":"RDOCreated","type":"event"},{"inputs":[{"internalType":"bytes32","name":"_rulesHash","type":"bytes32"},{"internalType":"string","name":"_metadataCID","type":"string"}],"name":"createRDO","outputs":[{"internalType":"uint256","name":"","type":"uint256"}],"stateMutability":"nonpayable","type":"function"},{"inputs":[{"internalType":"uint256","name":"","type":"uint256"}],"name":"rdos","outputs":[{"internalType":"uint256","name":"id","type":"uint256"},{"internalType":"address","name":"creator","type":"address"},{"internalType":"bytes32","name":"rulesHash","type":"bytes32"},{"internalType":"string","name":"metadataCID","type":"string"},{"internalType":"uint256","name":"createdAt","type":"uint256"}],"stateMutability":"view","type":"function"},{"inputs":[{"internalType":"uint256","name":"_rdoId","type":"uint256"},{"internalType":"string","name":"_actionType","type":"string"},{"internalType":"bytes","name":"_contextData","type":"bytes"},{"internalType":"uint256","name":"_expiry","type":"uint256"},{"internalType":"bool","name":"_allowForward","type":"bool"}],"name":"requestAction","outputs":[],"stateMutability":"nonpayable","type":"function"}],"evm":{"bytecode":{"linkReferences":{},"object":"608060405234801561001057600080fd5b50611213806100206000396000f3fe608060405234801561001057600080fd5b50600436106100415760003560e01c80633d46a22f14610046578063a249ced814610062578063e05c0f8814610096575b600080fd5b610060600480360381019061005b919061093e565b6100c6565b005b61007c600480360381019061007791906109f1565b610499565b60405161008d959493929190610b06565b60405180910390f35b6100b060048036038101906100ab9190610b8c565b610577565b6040516100bd9190610be8565b60405180910390f35b6000600160008781526020019081526020016000206040518060a0016040529081600082015481526020016001820160009054906101000a900473ffffffffffffffffffffffffffffffffffffffff1673ffffffffffffffffffffffffffffffffffffffff1673ffffffffffffffffffffffffffffffffffffffff1681526020016002820154815260200160038201805461016090610c32565b80601f016020809104026020016040519081016040528092919081815260200182805461018c90610c32565b80156101d95780601f106101ae576101008083540402835291602001916101d9565b820191906000526020600020905b8154815290600101906020018083116101bc57829003601f168201915b5050505050815260200160048201548152505090506000816000015103610235576040517f08c379a000000000000000000000000000000000000000000000000000000000815260040161022c90610caf565b60405180910390fd5b6000838360405160200161024a929190610d38565b604051602081830303815290604052805190602001209050816040015181146102a8576040517f08c379a000000000000000000000000000000000000000000000000000000000815260040161029f90610dd6565b60405180910390fd5b600086866040516020016102bd929190610e79565b6040516020818303038152906040528051906020012090506000806040518060200160405280600081525090506000871180156102f957508642115b1561033b57600191506040518060400160405280600f81526020017f52444f206861732065787069726564000000000000000000000000000000000081525090505b8115801561038b57506040518060400160405280600781526020017f464f525741524400000000000000000000000000000000000000000000000000815250805190602001208980519060200120145b156103d357856103d257600191506040518060400160405280601981526020017f466f7277617264696e67206973206e6f7420616c6c6f7765640000000000000081525090505b5b8115610436576103e16106cd565b73ffffffffffffffffffffffffffffffffffffffff168a7f8ec5eb50785a4658f0b909f01dda3fc4ddb7c7329364105ee596b9371d9159008584604051610429929190610e9d565b60405180910390a361048d565b61043e6106cd565b73ffffffffffffffffffffffffffffffffffffffff168a7fe3470f6e43580e8826470e283e4dc4e2445a432453c37e92b0ab6fd959ed99bd856040516104849190610ecd565b60405180910390a35b50505050505050505050565b60016020528060005260406000206000915090508060000154908060010160009054906101000a900473ffffffffffffffffffffffffffffffffffffffff16908060020154908060030180546104ee90610c32565b80601f016020809104026020016040519081016040528092919081815260200182805461051a90610c32565b80156105675780601f1061053c57610100808354040283529160200191610567565b820191906000526020600020905b81548152906001019060200180831161054a57829003601f168201915b5050505050908060040154905085565b600080600081548092919061058b90610f17565b91905055506000805490506040518060a001604052808281526020016105af6106cd565b73ffffffffffffffffffffffffffffffffffffffff16815260200185815260200184815260200142815250600160008381526020019081526020016000206000820151816000015560208201518160010160006101000a81548173ffffffffffffffffffffffffffffffffffffffff021916908373ffffffffffffffffffffffffffffffffffffffff16021790555060408201518160020155606082015181600301908161065d919061110b565b50608082015181600401559050506106736106cd565b73ffffffffffffffffffffffffffffffffffffffff16817f85ddea1cd79d643ed452f135c8d3e1c69b52f20f97fd1185cd23f0474cc981d786866040516106bb929190610e9d565b60405180910390a38091505092915050565b600033905090565b6000604051905090565b600080fd5b600080fd5b6000819050919050565b6106fc816106e9565b811461070757600080fd5b50565b600081359050610719816106f3565b92915050565b600080fd5b600080fd5b6000601f19601f8301169050919050565b7f4e487b7100000000000000000000000000000000000000000000000000000000600052604160045260246000fd5b61077282610729565b810181811067ffffffffffffffff821117156107915761079061073a565b5b80604052505050565b60006107a46106d5565b90506107b08282610769565b919050565b600067ffffffffffffffff8211156107d0576107cf61073a565b5b6107d982610729565b9050602081019050919050565b82818337600083830152505050565b6000610808610803846107b5565b61079a565b90508281526020810184848401111561082457610823610724565b5b61082f8482856107e6565b509392505050565b600082601f83011261084c5761084b61071f565b5b813561085c8482602086016107f5565b91505092915050565b600067ffffffffffffffff8211156108805761087f61073a565b5b61088982610729565b9050602081019050919050565b60006108a96108a484610865565b61079a565b9050828152602081018484840111156108c5576108c4610724565b5b6108d08482856107e6565b509392505050565b600082601f8301126108ed576108ec61071f565b5b81356108fd848260208601610896565b91505092915050565b60008115159050919050565b61091b81610906565b811461092657600080fd5b50565b60008135905061093881610912565b92915050565b600080600080600060a0868803121561095a576109596106df565b5b60006109688882890161070a565b955050602086013567ffffffffffffffff811115610989576109886106e4565b5b61099588828901610837565b945050604086013567ffffffffffffffff8111156109b6576109b56106e4565b5b6109c2888289016108d8565b93505060606109d38882890161070a565b92505060806109e488828901610929565b9150509295509295909350565b600060208284031215610a0757610a066106df565b5b6000610a158482850161070a565b91505092915050565b610a27816106e9565b82525050565b600073ffffffffffffffffffffffffffffffffffffffff82169050919050565b6000610a5882610a2d565b9050919050565b610a6881610a4d565b82525050565b6000819050919050565b610a8181610a6e565b82525050565b600081519050919050565b600082825260208201905092915050565b60005b83811015610ac1578082015181840152602081019050610aa6565b60008484015250505050565b6000610ad882610a87565b610ae28185610a92565b9350610af2818560208601610aa3565b610afb81610729565b840191505092915050565b600060a082019050610b1b6000830188610a1e565b610b286020830187610a5f565b610b356040830186610a78565b8181036060830152610b478185610acd565b9050610b566080830184610a1e565b9695505050505050565b610b6981610a6e565b8114610b7457600080fd5b50565b600081359050610b8681610b60565b92915050565b60008060408385031215610ba357610ba26106df565b5b6000610bb185828601610b77565b925050602083013567ffffffffffffffff811115610bd257610bd16106e4565b5b610bde85828601610837565b9150509250929050565b6000602082019050610bfd6000830184610a1e565b92915050565b7f4e487b7100000000000000000000000000000000000000000000000000000000600052602260045260246000fd5b60006002820490506001821680610c4a57607f821691505b602082108103610c5d57610c5c610c03565b5b50919050565b7f52444f20646f6573206e6f742065786973740000000000000000000000000000600082015250565b6000610c99601283610a92565b9150610ca482610c63565b602082019050919050565b60006020820190508181036000830152610cc881610c8c565b9050919050565b6000819050919050565b610cea610ce5826106e9565b610ccf565b82525050565b60008160f81b9050919050565b6000610d0882610cf0565b9050919050565b6000610d1a82610cfd565b9050919050565b610d32610d2d82610906565b610d0f565b82525050565b6000610d448285610cd9565b602082019150610d548284610d21565b6001820191508190509392505050565b7f50726f76696465642072756c657320646f206e6f74206d617463682073746f7260008201527f6564206861736800000000000000000000000000000000000000000000000000602082015250565b6000610dc0602783610a92565b9150610dcb82610d64565b604082019050919050565b60006020820190508181036000830152610def81610db3565b9050919050565b600081905092915050565b6000610e0c82610a87565b610e168185610df6565b9350610e26818560208601610aa3565b80840191505092915050565b600081519050919050565b600081905092915050565b6000610e5382610e32565b610e5d8185610e3d565b9350610e6d818560208601610aa3565b80840191505092915050565b6000610e858285610e01565b9150610e918284610e48565b91508190509392505050565b6000604082019050610eb26000830185610a78565b8181036020830152610ec48184610acd565b90509392505050565b6000602082019050610ee26000830184610a78565b92915050565b7f4e487b7100000000000000000000000000000000000000000000000000000000600052601160045260246000fd5b6000610f22826106e9565b91507fffffffffffffffffffffffffffffffffffffffffffffffffffffffffffffffff8203610f5457610f53610ee8565b5b600182019050919050565b60008190508160005260206000209050919050565b60006020601f8301049050919050565b600082821b905092915050565b600060088302610fc17fffffffffffffffffffffffffffffffffffffffffffffffffffffffffffffffff82610f84565b610fcb8683610f84565b95508019841693508086168417925050509392505050565b6000819050919050565b6000611008611003610ffe846106e9565b610fe3565b6106e9565b9050919050565b6000819050919050565b61102283610fed565b61103661102e8261100f565b848454610f91565b825550505050565b600090565b61104b61103e565b611056818484611019565b505050565b5b8181101561107a5761106f600082611043565b60018101905061105c565b5050565b601f8211156110bf5761109081610f5f565b61109984610f74565b810160208510156110a8578190505b6110bc6110b485610f74565b83018261105b565b50505b505050565b600082821c905092915050565b60006110e2600019846008026110c4565b1980831691505092915050565b60006110fb83836110d1565b9150826002028217905092915050565b61111482610a87565b67ffffffffffffffff81111561112d5761112c61073a565b5b6111378254610c32565b61114282828561107e565b600060209050601f8311600181146111755760008415611163578287015190505b61116d85826110ef565b8655506111d5565b601f19841661118386610f5f565b60005b828110156111ab57848901518255600182019150602085019450602081019050611186565b868310156111c857848901516111c4601f8916826110d1565b8355505b6001600288020188555050505b50505050505056fea26469706673582212204c68e50939a65e1d564dde232571d305076dbe50077be781508fe006373432a764736f6c63430008140033","opcodes":"PUSH1 0x80 PUSH1 0x40 MSTORE CALLVALUE DUP1 ISZERO PUSH2 0x10 JUMPI PUSH1 0x0 DUP1 REVERT JUMPDEST POP PUSH2 0x1213 DUP1 PUSH2 0x20 PUSH1 0x0 CODECOPY PUSH1 0x0 RETURN INVALID PUSH1 0x80 PUSH1 0x40 MSTORE CALLVALUE DUP1 ISZERO PUSH2 0x10 JUMPI PUSH1 0x0 DUP1 REVERT JUMPDEST POP PUSH1 0x4 CALLDATASIZE LT PUSH2 0x41 JUMPI PUSH1 0x0 CALLDATALOAD PUSH1 0xE0 SHR DUP1 PUSH4 0x3D46A22F EQ PUSH2 0x46 JUMPI DUP1 PUSH4 0xA249CED8 EQ PUSH2 0x62 JUMPI DUP1 PUSH4 0xE05C0F88 EQ PUSH2 0x96 JUMPI JUMPDEST PUSH1 0x0 DUP1 REVERT JUMPDEST PUSH2 0x60 PUSH1 0x4 DUP1 CALLDATASIZE SUB DUP2 ADD SWAP1 PUSH2 0x5B SWAP2 SWAP1 PUSH2 0x93E JUMP JUMPDEST PUSH2 0xC6 JUMP JUMPDEST STOP JUMPDEST PUSH2 0x7C PUSH1 0x4 DUP1 CALLDATASIZE SUB DUP2 ADD SWAP1 PUSH2 0x77 SWAP2 SWAP1 PUSH2 0x9F1 JUMP JUMPDEST PUSH2 0x499 JUMP JUMPDEST PUSH1 0x40 MLOAD PUSH2 0x8D SWAP6 SWAP5 SWAP4 SWAP3 SWAP2 SWAP1 PUSH2 0xB06 JUMP JUMPDEST PUSH1 0x40 MLOAD DUP1 SWAP2 SUB SWAP1 RETURN JUMPDEST PUSH2 0xB0 PUSH1 0x4 DUP1 CALLDATASIZE SUB DUP2 ADD SWAP1 PUSH2 0xAB SWAP2 SWAP1 PUSH2 0xB8C JUMP JUMPDEST PUSH2 0x577 JUMP JUMPDEST PUSH1 0x40 MLOAD PUSH2 0xBD SWAP2 SWAP1 PUSH2 0xBE8 JUMP JUMPDEST PUSH1 0x40 MLOAD DUP1 SWAP2 SUB SWAP1 RETURN JUMPDEST PUSH1 0x0 PUSH1 0x1 PUSH1 0x0 DUP8 DUP2 MSTORE PUSH1 0x20 ADD SWAP1 DUP2 MSTORE PUSH1 0x20 ADD PUSH1 0x0 KECCAK256 PUSH1 0x40 MLOAD DUP1 PUSH1 0xA0 ADD PUSH1 0x40 MSTORE SWAP1 DUP2 PUSH1 0x0 DUP3 ADD SLOAD DUP2 MSTORE PUSH1 0x20 ADD PUSH1 0x1 DUP3 ADD PUSH1 0x0 SWAP1 SLOAD SWAP1 PUSH2 0x100 EXP SWAP1 DIV PUSH20 0xFFFFFFFFFFFFFFFFFFFFFFFFFFFFFFFFFFFFFFFF AND PUSH20 0xFFFFFFFFFFFFFFFFFFFFFFFFFFFFFFFFFFFFFFFF AND PUSH20 0xFFFFFFFFFFFFFFFFFFFFFFFFFFFFFFFFFFFFFFFF AND DUP2 MSTORE PUSH1 0x20 ADD PUSH1 0x2 DUP3 ADD SLOAD DUP2 MSTORE PUSH1 0x20 ADD PUSH1 0x3 DUP3 ADD DUP1 SLOAD PUSH2 0x160 SWAP1 PUSH2 0xC32 JUMP JUMPDEST DUP1 PUSH1 0x1F ADD PUSH1 0x20 DUP1 SWAP2 DIV MUL PUSH1 0x20 ADD PUSH1 0x40 MLOAD SWAP1 DUP2 ADD PUSH1 0x40 MSTORE DUP1 SWAP3 SWAP2 SWAP1 DUP2 DUP2 MSTORE PUSH1 0x20 ADD DUP3 DUP1 SLOAD PUSH2 0x18C SWAP1 PUSH2 0xC32 JUMP JUMPDEST DUP1 ISZERO PUSH2 0x1D9 JUMPI DUP1 PUSH1 0x1F LT PUSH2 0x1AE JUMPI PUSH2 0x100 DUP1 DUP4 SLOAD DIV MUL DUP4 MSTORE SWAP2 PUSH1 0x20 ADD SWAP2 PUSH2 0x1D9 JUMP JUMPDEST DUP3 ADD SWAP2 SWAP1 PUSH1 0x0 MSTORE PUSH1 0x20 PUSH1 0x0 KECCAK256 SWAP1 JUMPDEST DUP2 SLOAD DUP2 MSTORE SWAP1 PUSH1 0x1 ADD SWAP1 PUSH1 0x20 ADD DUP1 DUP4 GT PUSH2 0x1BC JUMPI DUP3 SWAP1 SUB PUSH1 0x1F AND DUP3 ADD SWAP2 JUMPDEST POP POP POP POP POP DUP2 MSTORE PUSH1 0x20 ADD PUSH1 0x4 DUP3 ADD SLOAD DUP2 MSTORE POP POP SWAP1 POP PUSH1 0x0 DUP2 PUSH1 0x0 ADD MLOAD SUB PUSH2 0x235 JUMPI PUSH1 0x40 MLOAD PUSH32 0x8C379A000000000000000000000000000000000000000000000000000000000 DUP2 MSTORE PUSH1 0x4 ADD PUSH2 0x22C SWAP1 PUSH2 0xCAF JUMP JUMPDEST PUSH1 0x40 MLOAD DUP1 SWAP2 SUB SWAP1 REVERT JUMPDEST PUSH1 0x0 DUP4 DUP4 PUSH1 0x40 MLOAD PUSH1 0x20 ADD PUSH2 0x24A SWAP3 SWAP2 SWAP1 PUSH2 0xD38 JUMP JUMPDEST PUSH1 0x40 MLOAD PUSH1 0x20 DUP2 DUP4 SUB SUB DUP2 MSTORE SWAP1 PUSH1 0x40 MSTORE DUP1 MLOAD SWAP1 PUSH1 0x20 ADD KECCAK256 SWAP1 POP DUP2 PUSH1 0x40 ADD MLOAD DUP2 EQ PUSH2 0x2A8 JUMPI PUSH1 0x40 MLOAD PUSH32 0x8C379A000000000000000000000000000000000000000000000000000000000 DUP2 MSTORE PUSH1 0x4 ADD PUSH2 0x29F SWAP1 PUSH2 0xDD6 JUMP JUMPDEST PUSH1 0x40 MLOAD DUP1 SWAP2 SUB SWAP1 REVERT JUMPDEST PUSH1 0x0 DUP7 DUP7 PUSH1 0x40 MLOAD PUSH1 0x20 ADD PUSH2 0x2BD SWAP3 SWAP2 SWAP1 PUSH2 0xE79 JUMP JUMPDEST PUSH1 0x40 MLOAD PUSH1 0x20 DUP2 DUP4 SUB SUB DUP2 MSTORE SWAP1 PUSH1 0x40 MSTORE DUP1 MLOAD SWAP1 PUSH1 0x20 ADD KECCAK256 SWAP1 POP PUSH1 0x0 DUP1 PUSH1 0x40 MLOAD DUP1 PUSH1 0x20 ADD PUSH1 0x40 MSTORE DUP1 PUSH1 0x0 DUP2 MSTORE POP SWAP1 POP PUSH1 0x0 DUP8 GT DUP1 ISZERO PUSH2 0x2F9 JUMPI POP DUP7 TIMESTAMP GT JUMPDEST ISZERO PUSH2 0x33B JUMPI PUSH1 0x1 SWAP2 POP PUSH1 0x40 MLOAD DUP1 PUSH1 0x40 ADD PUSH1 0x40 MSTORE DUP1 PUSH1 0xF DUP2 MSTORE PUSH1 0x20 ADD PUSH32 0x52444F2068617320657870697265640000000000000000000000000000000000 DUP2 MSTORE POP SWAP1 POP JUMPDEST DUP2 ISZERO DUP1 ISZERO PUSH2 0x38B JUMPI POP PUSH1 0x40 MLOAD DUP1 PUSH1 0x40 ADD PUSH1 0x40 MSTORE DUP1 PUSH1 0x7 DUP2 MSTORE PUSH1 0x20 ADD PUSH32 0x464F525741524400000000000000000000000000000000000000000000000000 DUP2 MSTORE POP DUP1 MLOAD SWAP1 PUSH1 0x20 ADD KECCAK256 DUP10 DUP1 MLOAD SWAP1 PUSH1 0x20 ADD KECCAK256 EQ JUMPDEST ISZERO PUSH2 0x3D3 JUMPI DUP6 PUSH2 0x3D2 JUMPI PUSH1 0x1 SWAP2 POP PUSH1 0x40 MLOAD DUP1 PUSH1 0x40 ADD PUSH1 0x40 MSTORE DUP1 PUSH1 0x19 DUP2 MSTORE PUSH1 0x20 ADD PUSH32 0x466F7277617264696E67206973206E6F7420616C6C6F77656400000000000000 DUP2 MSTORE POP SWAP1 POP JUMPDEST JUMPDEST DUP2 ISZERO PUSH2 0x436 JUMPI PUSH2 0x3E1 PUSH2 0x6CD JUMP JUMPDEST PUSH20 0xFFFFFFFFFFFFFFFFFFFFFFFFFFFFFFFFFFFFFFFF AND DUP11 PUSH32 0x8EC5EB50785A4658F0B909F01DDA3FC4DDB7C7329364105EE596B9371D915900 DUP6 DUP5 PUSH1 0x40 MLOAD PUSH2 0x429 SWAP3 SWAP2 SWAP1 PUSH2 0xE9D JUMP JUMPDEST PUSH1 0x40 MLOAD DUP1 SWAP2 SUB SWAP1 LOG3 PUSH2 0x48D JUMP JUMPDEST PUSH2 0x43E PUSH2 0x6CD JUMP JUMPDEST PUSH20 0xFFFFFFFFFFFFFFFFFFFFFFFFFFFFFFFFFFFFFFFF AND DUP11 PUSH32 0xE3470F6E43580E8826470E283E4DC4E2445A432453C37E92B0AB6FD959ED99BD DUP6 PUSH1 0x40 MLOAD PUSH2 0x484 SWAP2 SWAP1 PUSH2 0xECD JUMP JUMPDEST PUSH1 0x40 MLOAD DUP1 SWAP2 SUB SWAP1 LOG3 JUMPDEST POP POP POP POP POP POP POP POP POP POP JUMP JUMPDEST PUSH1 0x1 PUSH1 0x20 MSTORE DUP1 PUSH1 0x0 MSTORE PUSH1 0x40 PUSH1 0x0 KECCAK256 PUSH1 0x0 SWAP2 POP SWAP1 POP DUP1 PUSH1 0x0 ADD SLOAD SWAP1 DUP1 PUSH1 0x1 ADD PUSH1 0x0 SWAP1 SLOAD SWAP1 PUSH2 0x100 EXP SWAP1 DIV PUSH20 0xFFFFFFFFFFFFFFFFFFFFFFFFFFFFFFFFFFFFFFFF AND SWAP1 DUP1 PUSH1 0x2 ADD SLOAD SWAP1 DUP1 PUSH1 0x3 ADD DUP1 SLOAD PUSH2 0x4EE SWAP1 PUSH2 0xC32 JUMP JUMPDEST DUP1 PUSH1 0x1F ADD PUSH1 0x20 DUP1 SWAP2 DIV MUL PUSH1 0x20 ADD PUSH1 0x40 MLOAD SWAP1 DUP2 ADD PUSH1 0x40 MSTORE DUP1 SWAP3 SWAP2 SWAP1 DUP2 DUP2 MSTORE PUSH1 0x20 ADD DUP3 DUP1 SLOAD PUSH2 0x51A SWAP1 PUSH2 0xC32 JUMP JUMPDEST DUP1 ISZERO PUSH2 0x567 JUMPI DUP1 PUSH1 0x1F LT PUSH2 0x53C JUMPI PUSH2 0x100 DUP1 DUP4 SLOAD DIV MUL DUP4 MSTORE SWAP2 PUSH1 0x20 ADD SWAP2 PUSH2 0x567 JUMP JUMPDEST DUP3 ADD SWAP2 SWAP1 PUSH1 0x0 MSTORE PUSH1 0x20 PUSH1 0x0 KECCAK256 SWAP1 JUMPDEST DUP2 SLOAD DUP2 MSTORE SWAP1 PUSH1 0x1 ADD SWAP1 PUSH1 0x20 ADD DUP1 DUP4 GT PUSH2 0x54A JUMPI DUP3 SWAP1 SUB PUSH1 0x1F AND DUP3 ADD SWAP2 JUMPDEST POP POP POP POP POP SWAP1 DUP1 PUSH1 0x4 ADD SLOAD SWAP1 POP DUP6 JUMP JUMPDEST PUSH1 0x0 DUP1 PUSH1 0x0 DUP2 SLOAD DUP1 SWAP3 SWAP2 SWAP1 PUSH2 0x58B SWAP1 PUSH2 0xF17 JUMP JUMPDEST SWAP2 SWAP1 POP SSTORE POP PUSH1 0x0 DUP1 SLOAD SWAP1 POP PUSH1 0x40 MLOAD DUP1 PUSH1 0xA0 ADD PUSH1 0x40 MSTORE DUP1 DUP3 DUP2 MSTORE PUSH1 0x20 ADD PUSH2 0x5AF PUSH2 0x6CD JUMP JUMPDEST PUSH20 0xFFFFFFFFFFFFFFFFFFFFFFFFFFFFFFFFFFFFFFFF AND DUP2 MSTORE PUSH1 0x20 ADD DUP6 DUP2 MSTORE PUSH1 0x20 ADD DUP5 DUP2 MSTORE PUSH1 0x20 ADD TIMESTAMP DUP2 MSTORE POP PUSH1 0x1 PUSH1 0x0 DUP4 DUP2 MSTORE PUSH1 0x20 ADD SWAP1 DUP2 MSTORE PUSH1 0x20 ADD PUSH1 0x0 KECCAK256 PUSH1 0x0 DUP3 ADD MLOAD DUP2 PUSH1 0x0 ADD SSTORE PUSH1 0x20 DUP3 ADD MLOAD DUP2 PUSH1 0x1 ADD PUSH1 0x0 PUSH2 0x100 EXP DUP2 SLOAD DUP2 PUSH20 0xFFFFFFFFFFFFFFFFFFFFFFFFFFFFFFFFFFFFFFFF MUL NOT AND SWAP1 DUP4 PUSH20 0xFFFFFFFFFFFFFFFFFFFFFFFFFFFFFFFFFFFFFFFF AND MUL OR SWAP1 SSTORE POP PUSH1 0x40 DUP3 ADD MLOAD DUP2 PUSH1 0x2 ADD SSTORE PUSH1 0x60 DUP3 ADD MLOAD DUP2 PUSH1 0x3 ADD SWAP1 DUP2 PUSH2 0x65D SWAP2 SWAP1 PUSH2 0x110B JUMP JUMPDEST POP PUSH1 0x80 DUP3 ADD MLOAD DUP2 PUSH1 0x4 ADD SSTORE SWAP1 POP POP PUSH2 0x673 PUSH2 0x6CD JUMP JUMPDEST PUSH20 0xFFFFFFFFFFFFFFFFFFFFFFFFFFFFFFFFFFFFFFFF AND DUP2 PUSH32 0x85DDEA1CD79D643ED452F135C8D3E1C69B52F20F97FD1185CD23F0474CC981D7 DUP7 DUP7 PUSH1 0x40 MLOAD PUSH2 0x6BB SWAP3 SWAP2 SWAP1 PUSH2 0xE9D JUMP JUMPDEST PUSH1 0x40 MLOAD DUP1 SWAP2 SUB SWAP1 LOG3 DUP1 SWAP2 POP POP SWAP3 SWAP2 POP POP JUMP JUMPDEST PUSH1 0x0 CALLER SWAP1 POP SWAP1 JUMP JUMPDEST PUSH1 0x0 PUSH1 0x40 MLOAD SWAP1 POP SWAP1 JUMP JUMPDEST PUSH1 0x0 DUP1 REVERT JUMPDEST PUSH1 0x0 DUP1 REVERT JUMPDEST PUSH1 0x0 DUP2 SWAP1 POP SWAP2 SWAP1 POP JUMP JUMPDEST PUSH2 0x6FC DUP2 PUSH2 0x6E9 JUMP JUMPDEST DUP2 EQ PUSH2 0x707 JUMPI PUSH1 0x0 DUP1 REVERT JUMPDEST POP JUMP JUMPDEST PUSH1 0x0 DUP2 CALLDATALOAD SWAP1 POP PUSH2 0x719 DUP2 PUSH2 0x6F3 JUMP JUMPDEST SWAP3 SWAP2 POP POP JUMP JUMPDEST PUSH1 0x0 DUP1 REVERT JUMPDEST PUSH1 0x0 DUP1 REVERT JUMPDEST PUSH1 0x0 PUSH1 0x1F NOT PUSH1 0x1F DUP4 ADD AND SWAP1 POP SWAP2 SWAP1 POP JUMP JUMPDEST PUSH32 0x4E487B7100000000000000000000000000000000000000000000000000000000 PUSH1 0x0 MSTORE PUSH1 0x41 PUSH1 0x4 MSTORE PUSH1 0x24 PUSH1 0x0 REVERT JUMPDEST PUSH2 0x772 DUP3 PUSH2 0x729 JUMP JUMPDEST DUP2 ADD DUP2 DUP2 LT PUSH8 0xFFFFFFFFFFFFFFFF DUP3 GT OR ISZERO PUSH2 0x791 JUMPI PUSH2 0x790 PUSH2 0x73A JUMP JUMPDEST JUMPDEST DUP1 PUSH1 0x40 MSTORE POP POP POP JUMP JUMPDEST PUSH1 0x0 PUSH2 0x7A4 PUSH2 0x6D5 JUMP JUMPDEST SWAP1 POP PUSH2 0x7B0 DUP3 DUP3 PUSH2 0x769 JUMP JUMPDEST SWAP2 SWAP1 POP JUMP JUMPDEST PUSH1 0x0 PUSH8 0xFFFFFFFFFFFFFFFF DUP3 GT ISZERO PUSH2 0x7D0 JUMPI PUSH2 0x7CF PUSH2 0x73A JUMP JUMPDEST JUMPDEST PUSH2 0x7D9 DUP3 PUSH2 0x729 JUMP JUMPDEST SWAP1 POP PUSH1 0x20 DUP2 ADD SWAP1 POP SWAP2 SWAP1 POP JUMP JUMPDEST DUP3 DUP2 DUP4 CALLDATACOPY PUSH1 0x0 DUP4 DUP4 ADD MSTORE POP POP POP JUMP JUMPDEST PUSH1 0x0 PUSH2 0x808 PUSH2 0x803 DUP5 PUSH2 0x7B5 JUMP JUMPDEST PUSH2 0x79A JUMP JUMPDEST SWAP1 POP DUP3 DUP2 MSTORE PUSH1 0x20 DUP2 ADD DUP5 DUP5 DUP5 ADD GT ISZERO PUSH2 0x824 JUMPI PUSH2 0x823 PUSH2 0x724 JUMP JUMPDEST JUMPDEST PUSH2 0x82F DUP5 DUP3 DUP6 PUSH2 0x7E6 JUMP JUMPDEST POP SWAP4 SWAP3 POP POP POP JUMP JUMPDEST PUSH1 0x0 DUP3 PUSH1 0x1F DUP4 ADD SLT PUSH2 0x84C JUMPI PUSH2 0x84B PUSH2 0x71F JUMP JUMPDEST JUMPDEST DUP2 CALLDATALOAD PUSH2 0x85C DUP5 DUP3 PUSH1 0x20 DUP7 ADD PUSH2 0x7F5 JUMP JUMPDEST SWAP2 POP POP SWAP3 SWAP2 POP POP JUMP JUMPDEST PUSH1 0x0 PUSH8 0xFFFFFFFFFFFFFFFF DUP3 GT ISZERO PUSH2 0x880 JUMPI PUSH2 0x87F PUSH2 0x73A JUMP JUMPDEST JUMPDEST PUSH2 0x889 DUP3 PUSH2 0x729 JUMP JUMPDEST SWAP1 POP PUSH1 0x20 DUP2 ADD SWAP1 POP SWAP2 SWAP1 POP JUMP JUMPDEST PUSH1 0x0 PUSH2 0x8A9 PUSH2 0x8A4 DUP5 PUSH2 0x865 JUMP JUMPDEST PUSH2 0x79A JUMP JUMPDEST SWAP1 POP DUP3 DUP2 MSTORE PUSH1 0x20 DUP2 ADD DUP5 DUP5 DUP5 ADD GT ISZERO PUSH2 0x8C5 JUMPI PUSH2 0x8C4 PUSH2 0x724 JUMP JUMPDEST JUMPDEST PUSH2 0x8D0 DUP5 DUP3 DUP6 PUSH2 0x7E6 JUMP JUMPDEST POP SWAP4 SWAP3 POP POP POP JUMP JUMPDEST PUSH1 0x0 DUP3 PUSH1 0x1F DUP4 ADD SLT PUSH2 0x8ED JUMPI PUSH2 0x8EC PUSH2 0x71F JUMP JUMPDEST JUMPDEST DUP2 CALLDATALOAD PUSH2 0x8FD DUP5 DUP3 PUSH1 0x20 DUP7 ADD PUSH2 0x896 JUMP JUMPDEST SWAP2 POP POP SWAP3 SWAP2 POP POP JUMP JUMPDEST PUSH1 0x0 DUP2 ISZERO ISZERO SWAP1 POP SWAP2 SWAP1 POP JUMP JUMPDEST PUSH2 0x91B DUP2 PUSH2 0x906 JUMP JUMPDEST DUP2 EQ PUSH2 0x926 JUMPI PUSH1 0x0 DUP1 REVERT JUMPDEST POP JUMP JUMPDEST PUSH1 0x0 DUP2 CALLDATALOAD SWAP1 POP PUSH2 0x938 DUP2 PUSH2 0x912 JUMP JUMPDEST SWAP3 SWAP2 POP POP JUMP JUMPDEST PUSH1 0x0 DUP1 PUSH1 0x0 DUP1 PUSH1 0x0 PUSH1 0xA0 DUP7 DUP9 SUB SLT ISZERO PUSH2 0x95A JUMPI PUSH2 0x959 PUSH2 0x6DF JUMP JUMPDEST JUMPDEST PUSH1 0x0 PUSH2 0x968 DUP9 DUP3 DUP10 ADD PUSH2 0x70A JUMP JUMPDEST SWAP6 POP POP PUSH1 0x20 DUP7 ADD CALLDATALOAD PUSH8 0xFFFFFFFFFFFFFFFF DUP2 GT ISZERO PUSH2 0x989 JUMPI PUSH2 0x988 PUSH2 0x6E4 JUMP JUMPDEST JUMPDEST PUSH2 0x995 DUP9 DUP3 DUP10 ADD PUSH2 0x837 JUMP JUMPDEST SWAP5 POP POP PUSH1 0x40 DUP7 ADD CALLDATALOAD PUSH8 0xFFFFFFFFFFFFFFFF DUP2 GT ISZERO PUSH2 0x9B6 JUMPI PUSH2 0x9B5 PUSH2 0x6E4 JUMP JUMPDEST JUMPDEST PUSH2 0x9C2 DUP9 DUP3 DUP10 ADD PUSH2 0x8D8 JUMP JUMPDEST SWAP4 POP POP PUSH1 0x60 PUSH2 0x9D3 DUP9 DUP3 DUP10 ADD PUSH2 0x70A JUMP JUMPDEST SWAP3 POP POP PUSH1 0x80 PUSH2 0x9E4 DUP9 DUP3 DUP10 ADD PUSH2 0x929 JUMP JUMPDEST SWAP2 POP POP SWAP3 SWAP6 POP SWAP3 SWAP6 SWAP1 SWAP4 POP JUMP JUMPDEST PUSH1 0x0 PUSH1 0x20 DUP3 DUP5 SUB SLT ISZERO PUSH2 0xA07 JUMPI PUSH2 0xA06 PUSH2 0x6DF JUMP JUMPDEST JUMPDEST PUSH1 0x0 PUSH2 0xA15 DUP5 DUP3 DUP6 ADD PUSH2 0x70A JUMP JUMPDEST SWAP2 POP POP SWAP3 SWAP2 POP POP JUMP JUMPDEST PUSH2 0xA27 DUP2 PUSH2 0x6E9 JUMP JUMPDEST DUP3 MSTORE POP POP JUMP JUMPDEST PUSH1 0x0 PUSH20 0xFFFFFFFFFFFFFFFFFFFFFFFFFFFFFFFFFFFFFFFF DUP3 AND SWAP1 POP SWAP2 SWAP1 POP JUMP JUMPDEST PUSH1 0x0 PUSH2 0xA58 DUP3 PUSH2 0xA2D JUMP JUMPDEST SWAP1 POP SWAP2 SWAP1 POP JUMP JUMPDEST PUSH2 0xA68 DUP2 PUSH2 0xA4D JUMP JUMPDEST DUP3 MSTORE POP POP JUMP JUMPDEST PUSH1 0x0 DUP2 SWAP1 POP SWAP2 SWAP1 POP JUMP JUMPDEST PUSH2 0xA81 DUP2 PUSH2 0xA6E JUMP JUMPDEST DUP3 MSTORE POP POP JUMP JUMPDEST PUSH1 0x0 DUP2 MLOAD SWAP1 POP SWAP2 SWAP1 POP JUMP JUMPDEST PUSH1 0x0 DUP3 DUP3 MSTORE PUSH1 0x20 DUP3 ADD SWAP1 POP SWAP3 SWAP2 POP POP JUMP JUMPDEST PUSH1 0x0 JUMPDEST DUP4 DUP2 LT ISZERO PUSH2 0xAC1 JUMPI DUP1 DUP3 ADD MLOAD DUP2 DUP5 ADD MSTORE PUSH1 0x20 DUP2 ADD SWAP1 POP PUSH2 0xAA6 JUMP JUMPDEST PUSH1 0x0 DUP5 DUP5 ADD MSTORE POP POP POP POP JUMP JUMPDEST PUSH1 0x0 PUSH2 0xAD8 DUP3 PUSH2 0xA87 JUMP JUMPDEST PUSH2 0xAE2 DUP2 DUP6 PUSH2 0xA92 JUMP JUMPDEST SWAP4 POP PUSH2 0xAF2 DUP2 DUP6 PUSH1 0x20 DUP7 ADD PUSH2 0xAA3 JUMP JUMPDEST PUSH2 0xAFB DUP2 PUSH2 0x729 JUMP JUMPDEST DUP5 ADD SWAP2 POP POP SWAP3 SWAP2 POP POP JUMP JUMPDEST PUSH1 0x0 PUSH1 0xA0 DUP3 ADD SWAP1 POP PUSH2 0xB1B PUSH1 0x0 DUP4 ADD DUP9 PUSH2 0xA1E JUMP JUMPDEST PUSH2 0xB28 PUSH1 0x20 DUP4 ADD DUP8 PUSH2 0xA5F JUMP JUMPDEST PUSH2 0xB35 PUSH1 0x40 DUP4 ADD DUP7 PUSH2 0xA78 JUMP JUMPDEST DUP2 DUP2 SUB PUSH1 0x60 DUP4 ADD MSTORE PUSH2 0xB47 DUP2 DUP6 PUSH2 0xACD JUMP JUMPDEST SWAP1 POP PUSH2 0xB56 PUSH1 0x80 DUP4 ADD DUP5 PUSH2 0xA1E JUMP JUMPDEST SWAP7 SWAP6 POP POP POP POP POP POP JUMP JUMPDEST PUSH2 0xB69 DUP2 PUSH2 0xA6E JUMP JUMPDEST DUP2 EQ PUSH2 0xB74 JUMPI PUSH1 0x0 DUP1 REVERT JUMPDEST POP JUMP JUMPDEST PUSH1 0x0 DUP2 CALLDATALOAD SWAP1 POP PUSH2 0xB86 DUP2 PUSH2 0xB60 JUMP JUMPDEST SWAP3 SWAP2 POP POP JUMP JUMPDEST PUSH1 0x0 DUP1 PUSH1 0x40 DUP4 DUP6 SUB SLT ISZERO PUSH2 0xBA3 JUMPI PUSH2 0xBA2 PUSH2 0x6DF JUMP JUMPDEST JUMPDEST PUSH1 0x0 PUSH2 0xBB1 DUP6 DUP3 DUP7 ADD PUSH2 0xB77 JUMP JUMPDEST SWAP3 POP POP PUSH1 0x20 DUP4 ADD CALLDATALOAD PUSH8 0xFFFFFFFFFFFFFFFF DUP2 GT ISZERO PUSH2 0xBD2 JUMPI PUSH2 0xBD1 PUSH2 0x6E4 JUMP JUMPDEST JUMPDEST PUSH2 0xBDE DUP6 DUP3 DUP7 ADD PUSH2 0x837 JUMP JUMPDEST SWAP2 POP POP SWAP3 POP SWAP3 SWAP1 POP JUMP JUMPDEST PUSH1 0x0 PUSH1 0x20 DUP3 ADD SWAP1 POP PUSH2 0xBFD PUSH1 0x0 DUP4 ADD DUP5 PUSH2 0xA1E JUMP JUMPDEST SWAP3 SWAP2 POP POP JUMP JUMPDEST PUSH32 0x4E487B7100000000000000000000000000000000000000000000000000000000 PUSH1 0x0 MSTORE PUSH1 0x22 PUSH1 0x4 MSTORE PUSH1 0x24 PUSH1 0x0 REVERT JUMPDEST PUSH1 0x0 PUSH1 0x2 DUP3 DIV SWAP1 POP PUSH1 0x1 DUP3 AND DUP1 PUSH2 0xC4A JUMPI PUSH1 0x7F DUP3 AND SWAP2 POP JUMPDEST PUSH1 0x20 DUP3 LT DUP2 SUB PUSH2 0xC5D JUMPI PUSH2 0xC5C PUSH2 0xC03 JUMP JUMPDEST JUMPDEST POP SWAP2 SWAP1 POP JUMP JUMPDEST PUSH32 0x52444F20646F6573206E6F742065786973740000000000000000000000000000 PUSH1 0x0 DUP3 ADD MSTORE POP JUMP JUMPDEST PUSH1 0x0 PUSH2 0xC99 PUSH1 0x12 DUP4 PUSH2 0xA92 JUMP JUMPDEST SWAP2 POP PUSH2 0xCA4 DUP3 PUSH2 0xC63 JUMP JUMPDEST PUSH1 0x20 DUP3 ADD SWAP1 POP SWAP2 SWAP1 POP JUMP JUMPDEST PUSH1 0x0 PUSH1 0x20 DUP3 ADD SWAP1 POP DUP2 DUP2 SUB PUSH1 0x0 DUP4 ADD MSTORE PUSH2 0xCC8 DUP2 PUSH2 0xC8C JUMP JUMPDEST SWAP1 POP SWAP2 SWAP1 POP JUMP JUMPDEST PUSH1 0x0 DUP2 SWAP1 POP SWAP2 SWAP1 POP JUMP JUMPDEST PUSH2 0xCEA PUSH2 0xCE5 DUP3 PUSH2 0x6E9 JUMP JUMPDEST PUSH2 0xCCF JUMP JUMPDEST DUP3 MSTORE POP POP JUMP JUMPDEST PUSH1 0x0 DUP2 PUSH1 0xF8 SHL SWAP1 POP SWAP2 SWAP1 POP JUMP JUMPDEST PUSH1 0x0 PUSH2 0xD08 DUP3 PUSH2 0xCF0 JUMP JUMPDEST SWAP1 POP SWAP2 SWAP1 POP JUMP JUMPDEST PUSH1 0x0 PUSH2 0xD1A DUP3 PUSH2 0xCFD JUMP JUMPDEST SWAP1 POP SWAP2 SWAP1 POP JUMP JUMPDEST PUSH2 0xD32 PUSH2 0xD2D DUP3 PUSH2 0x906 JUMP JUMPDEST PUSH2 0xD0F JUMP JUMPDEST DUP3 MSTORE POP POP JUMP JUMPDEST PUSH1 0x0 PUSH2 0xD44 DUP3 DUP6 PUSH2 0xCD9 JUMP JUMPDEST PUSH1 0x20 DUP3 ADD SWAP2 POP PUSH2 0xD54 DUP3 DUP5 PUSH2 0xD21 JUMP JUMPDEST PUSH1 0x1 DUP3 ADD SWAP2 POP DUP2 SWAP1 POP SWAP4 SWAP3 POP POP POP JUMP JUMPDEST PUSH32 0x50726F76696465642072756C657320646F206E6F74206D617463682073746F72 PUSH1 0x0 DUP3 ADD MSTORE PUSH32 0x6564206861736800000000000000000000000000000000000000000000000000 PUSH1 0x20 DUP3 ADD MSTORE POP JUMP JUMPDEST PUSH1 0x0 PUSH2 0xDC0 PUSH1 0x27 DUP4 PUSH2 0xA92 JUMP JUMPDEST SWAP2 POP PUSH2 0xDCB DUP3 PUSH2 0xD64 JUMP JUMPDEST PUSH1 0x40 DUP3 ADD SWAP1 POP SWAP2 SWAP1 POP JUMP JUMPDEST PUSH1 0x0 PUSH1 0x20 DUP3 ADD SWAP1 POP DUP2 DUP2 SUB PUSH1 0x0 DUP4 ADD MSTORE PUSH2 0xDEF DUP2 PUSH2 0xDB3 JUMP JUMPDEST SWAP1 POP SWAP2 SWAP1 POP JUMP JUMPDEST PUSH1 0x0 DUP2 SWAP1 POP SWAP3 SWAP2 POP POP JUMP JUMPDEST PUSH1 0x0 PUSH2 0xE0C DUP3 PUSH2 0xA87 JUMP JUMPDEST PUSH2 0xE16 DUP2 DUP6 PUSH2 0xDF6 JUMP JUMPDEST SWAP4 POP PUSH2 0xE26 DUP2 DUP6 PUSH1 0x20 DUP7 ADD PUSH2 0xAA3 JUMP JUMPDEST DUP1 DUP5 ADD SWAP2 POP POP SWAP3 SWAP2 POP POP JUMP JUMPDEST PUSH1 0x0 DUP2 MLOAD SWAP1 POP SWAP2 SWAP1 POP JUMP JUMPDEST PUSH1 0x0 DUP2 SWAP1 POP SWAP3 SWAP2 POP POP JUMP JUMPDEST PUSH1 0x0 PUSH2 0xE53 DUP3 PUSH2 0xE32 JUMP JUMPDEST PUSH2 0xE5D DUP2 DUP6 PUSH2 0xE3D JUMP JUMPDEST SWAP4 POP PUSH2 0xE6D DUP2 DUP6 PUSH1 0x20 DUP7 ADD PUSH2 0xAA3 JUMP JUMPDEST DUP1 DUP5 ADD SWAP2 POP POP SWAP3 SWAP2 POP POP JUMP JUMPDEST PUSH1 0x0 PUSH2 0xE85 DUP3 DUP6 PUSH2 0xE01 JUMP JUMPDEST SWAP2 POP PUSH2 0xE91 DUP3 DUP5 PUSH2 0xE48 JUMP JUMPDEST SWAP2 POP DUP2 SWAP1 POP SWAP4 SWAP3 POP POP POP JUMP JUMPDEST PUSH1 0x0 PUSH1 0x40 DUP3 ADD SWAP1 POP PUSH2 0xEB2 PUSH1 0x0 DUP4 ADD DUP6 PUSH2 0xA78 JUMP JUMPDEST DUP2 DUP2 SUB PUSH1 0x20 DUP4 ADD MSTORE PUSH2 0xEC4 DUP2 DUP5 PUSH2 0xACD JUMP JUMPDEST SWAP1 POP SWAP4 SWAP3 POP POP POP JUMP JUMPDEST PUSH1 0x0 PUSH1 0x20 DUP3 ADD SWAP1 POP PUSH2 0xEE2 PUSH1 0x0 DUP4 ADD DUP5 PUSH2 0xA78 JUMP JUMPDEST SWAP3 SWAP2 POP POP JUMP JUMPDEST PUSH32 0x4E487B7100000000000000000000000000000000000000000000000000000000 PUSH1 0x0 MSTORE PUSH1 0x11 PUSH1 0x4 MSTORE PUSH1 0x24 PUSH1 0x0 REVERT JUMPDEST PUSH1 0x0 PUSH2 0xF22 DUP3 PUSH2 0x6E9 JUMP JUMPDEST SWAP2 POP PUSH32 0xFFFFFFFFFFFFFFFFFFFFFFFFFFFFFFFFFFFFFFFFFFFFFFFFFFFFFFFFFFFFFFFF DUP3 SUB PUSH2 0xF54 JUMPI PUSH2 0xF53 PUSH2 0xEE8 JUMP JUMPDEST JUMPDEST PUSH1 0x1 DUP3 ADD SWAP1 POP SWAP2 SWAP1 POP JUMP JUMPDEST PUSH1 0x0 DUP2 SWAP1 POP DUP2 PUSH1 0x0 MSTORE PUSH1 0x20 PUSH1 0x0 KECCAK256 SWAP1 POP SWAP2 SWAP1 POP JUMP JUMPDEST PUSH1 0x0 PUSH1 0x20 PUSH1 0x1F DUP4 ADD DIV SWAP1 POP SWAP2 SWAP1 POP JUMP JUMPDEST PUSH1 0x0 DUP3 DUP3 SHL SWAP1 POP SWAP3 SWAP2 POP POP JUMP JUMPDEST PUSH1 0x0 PUSH1 0x8 DUP4 MUL PUSH2 0xFC1 PUSH32 0xFFFFFFFFFFFFFFFFFFFFFFFFFFFFFFFFFFFFFFFFFFFFFFFFFFFFFFFFFFFFFFFF DUP3 PUSH2 0xF84 JUMP JUMPDEST PUSH2 0xFCB DUP7 DUP4 PUSH2 0xF84 JUMP JUMPDEST SWAP6 POP DUP1 NOT DUP5 AND SWAP4 POP DUP1 DUP7 AND DUP5 OR SWAP3 POP POP POP SWAP4 SWAP3 POP POP POP JUMP JUMPDEST PUSH1 0x0 DUP2 SWAP1 POP SWAP2 SWAP1 POP JUMP JUMPDEST PUSH1 0x0 PUSH2 0x1008 PUSH2 0x1003 PUSH2 0xFFE DUP5 PUSH2 0x6E9 JUMP JUMPDEST PUSH2 0xFE3 JUMP JUMPDEST PUSH2 0x6E9 JUMP JUMPDEST SWAP1 POP SWAP2 SWAP1 POP JUMP JUMPDEST PUSH1 0x0 DUP2 SWAP1 POP SWAP2 SWAP1 POP JUMP JUMPDEST PUSH2 0x1022 DUP4 PUSH2 0xFED JUMP JUMPDEST PUSH2 0x1036 PUSH2 0x102E DUP3 PUSH2 0x100F JUMP JUMPDEST DUP5 DUP5 SLOAD PUSH2 0xF91 JUMP JUMPDEST DUP3 SSTORE POP POP POP POP JUMP JUMPDEST PUSH1 0x0 SWAP1 JUMP JUMPDEST PUSH2 0x104B PUSH2 0x103E JUMP JUMPDEST PUSH2 0x1056 DUP2 DUP5 DUP5 PUSH2 0x1019 JUMP JUMPDEST POP POP POP JUMP JUMPDEST JUMPDEST DUP2 DUP2 LT ISZERO PUSH2 0x107A JUMPI PUSH2 0x106F PUSH1 0x0 DUP3 PUSH2 0x1043 JUMP JUMPDEST PUSH1 0x1 DUP2 ADD SWAP1 POP PUSH2 0x105C JUMP JUMPDEST POP POP JUMP JUMPDEST PUSH1 0x1F DUP3 GT ISZERO PUSH2 0x10BF JUMPI PUSH2 0x1090 DUP2 PUSH2 0xF5F JUMP JUMPDEST PUSH2 0x1099 DUP5 PUSH2 0xF74 JUMP JUMPDEST DUP2 ADD PUSH1 0x20 DUP6 LT ISZERO PUSH2 0x10A8 JUMPI DUP2 SWAP1 POP JUMPDEST PUSH2 0x10BC PUSH2 0x10B4 DUP6 PUSH2 0xF74 JUMP JUMPDEST DUP4 ADD DUP3 PUSH2 0x105B JUMP JUMPDEST POP POP JUMPDEST POP POP POP JUMP JUMPDEST PUSH1 0x0 DUP3 DUP3 SHR SWAP1 POP SWAP3 SWAP2 POP POP JUMP JUMPDEST PUSH1 0x0 PUSH2 0x10E2 PUSH1 0x0 NOT DUP5 PUSH1 0x8 MUL PUSH2 0x10C4 JUMP JUMPDEST NOT DUP1 DUP4 AND SWAP2 POP POP SWAP3 SWAP2 POP POP JUMP JUMPDEST PUSH1 0x0 PUSH2 0x10FB DUP4 DUP4 PUSH2 0x10D1 JUMP JUMPDEST SWAP2 POP DUP3 PUSH1 0x2 MUL DUP3 OR SWAP1 POP SWAP3 SWAP2 POP POP JUMP JUMPDEST PUSH2 0x1114 DUP3 PUSH2 0xA87 JUMP JUMPDEST PUSH8 0xFFFFFFFFFFFFFFFF DUP2 GT ISZERO PUSH2 0x112D JUMPI PUSH2 0x112C PUSH2 0x73A JUMP JUMPDEST JUMPDEST PUSH2 0x1137 DUP3 SLOAD PUSH2 0xC32 JUMP JUMPDEST PUSH2 0x1142 DUP3 DUP3 DUP6 PUSH2 0x107E JUMP JUMPDEST PUSH1 0x0 PUSH1 0x20 SWAP1 POP PUSH1 0x1F DUP4 GT PUSH1 0x1 DUP2 EQ PUSH2 0x1175 JUMPI PUSH1 0x0 DUP5 ISZERO PUSH2 0x1163 JUMPI DUP3 DUP8 ADD MLOAD SWAP1 POP JUMPDEST PUSH2 0x116D DUP6 DUP3 PUSH2 0x10EF JUMP JUMPDEST DUP7 SSTORE POP PUSH2 0x11D5 JUMP JUMPDEST PUSH1 0x1F NOT DUP5 AND PUSH2 0x1183 DUP7 PUSH2 0xF5F JUMP JUMPDEST PUSH1 0x0 JUMPDEST DUP3 DUP2 LT ISZERO PUSH2 0x11AB JUMPI DUP5 DUP10 ADD MLOAD DUP3 SSTORE PUSH1 0x1 DUP3 ADD SWAP2 POP PUSH1 0x20 DUP6 ADD SWAP5 POP PUSH1 0x20 DUP2 ADD SWAP1 POP PUSH2 0x1186 JUMP JUMPDEST DUP7 DUP4 LT ISZERO PUSH2 0x11C8 JUMPI DUP5 DUP10 ADD MLOAD PUSH2 0x11C4 PUSH1 0x1F DUP10 AND DUP3 PUSH2 0x10D1 JUMP JUMPDEST DUP4 SSTORE POP JUMPDEST PUSH1 0x1 PUSH1 0x2 DUP9 MUL ADD DUP9 SSTORE POP POP POP JUMPDEST POP POP POP POP POP POP JUMP INVALID LOG2 PUSH5 0x6970667358 0x22 SLT KECCAK256 0x4C PUSH9 0xE50939A65E1D564DDE 0x23 0x25 PUSH18 0xD305076DBE50077BE781508FE006373432A7 PUSH5 0x736F6C6343 STOP ADDMOD EQ STOP CALLER "},"methodIdentifiers":{"createRDO(bytes32,string)":"e05c0f88","rdos(uint256)":"a249ced8","requestAction(uint256,string,bytes,uint256,bool)":"3d46a22f"}}}}}