{"contracts/RDORegistry.sol":{"RDORegistry":{"abi":[{"inputs":[],"stateMutability":"nonpayable","type":"constructor"},{"anonymous":false,"inputs":[{"indexed":true,"internalType":"uint256","name":"rdoId","type":"uint256"},{"indexed":true,"internalType":"address","name":"actor","type":"address"},{"indexed":false,"internalType":"uint8","name":"actionType","type":"uint8"},{"indexed":false,"internalType":"bytes32","name":"actionHash","type":"bytes32"}],"name":"ActionAllowed","type":"event"},{"anonymous":false,"inputs":[{"indexed":true,"internalType":"uint256","name":"rdoId","type":"uint256"},{"indexed":true,"internalType":"address","name":"actor","type":"address"},{"indexed":false,"internalType":"uint8","name":"actionType","type":"uint8"},{"indexed":false,"internalType":"bytes32","name":"violatedRuleHash","type":"bytes32"},{"indexed":false,"internalType":"string","name":"reason","type":"string"}],"name":"ActionRefused","type":"event"},{"anonymous":false,"inputs":[{"indexed":true,"internalType":"uint256","name":"rdoId","type":"uint256"},{"indexed":true,"internalType":"address","name":"creator","type":"address"},{"indexed":false,"internalType":"enum RDORegistry.RDOType","name":"rdoType","type":"uint8"},{"indexed":false,"internalType":"bytes32","name":"rulesHash","type":"bytes32"},{"indexed":false,"internalType":"string","name":"metadataCID","type":"string"}],"name":"RDOCreated","type":"event"},{"inputs":[{"internalType":"bytes32","name":"_rulesHash","type":"bytes32"},{"internalType":"enum RDORegistry.RDOType","name":"_rdoType","type":"uint8"},{"components":[{"internalType":"bool","name":"forbidCopy","type":"bool"},{"internalType":"bool","name":"forbidForward","type":"bool"},{"internalType":"bool","name":"forbidExport","type":"bool"},{"internalType":"uint64","name":"expiry","type":"uint64"},{"internalType":"uint8","name":"accessType","type":"uint8"},{"internalType":"uint256","name":"maxUses","type":"uint256"},{"internalType":"bool","name":"lockOnViolation","type":"bool"},{"internalType":"bool","name":"requireIdentity","type":"bool"}],"internalType":"struct RDORegistry.Rules","name":"_rulesCompact","type":"tuple"},{"internalType":"string","name":"_metadataCID","type":"string"}],"name":"createRDO","outputs":[{"internalType":"uint256","name":"","type":"uint256"}],"stateMutability":"nonpayable","type":"function"},{"inputs":[{"internalType":"uint256","name":"","type":"uint256"}],"name":"rdos","outputs":[{"internalType":"uint256","name":"id","type":"uint256"},{"internalType":"address","name":"creator","type":"address"},{"internalType":"enum RDORegistry.RDOType","name":"rdoType","type":"uint8"},{"internalType":"bytes32","name":"rulesHash","type":"bytes32"},{"components":[{"internalType":"bool","name":"forbidCopy","type":"bool"},{"internalType":"bool","name":"forbidForward","type":"bool"},{"internalType":"bool","name":"forbidExport","type":"bool"},{"internalType":"uint64","name":"expiry","type":"uint64"},{"internalType":"uint8","name":"accessType","type":"uint8"},{"internalType":"uint256","name":"maxUses","type":"uint256"},{"internalType":"bool","name":"lockOnViolation","type":"bool"},{"internalType":"bool","name":"requireIdentity","type":"bool"}],"internalType":"struct RDORegistry.Rules","name":"rules","type":"tuple"},{"internalType":"string","name":"metadataCID","type":"string"},{"internalType":"uint256","name":"createdAt","type":"uint256"},{"internalType":"bool","name":"locked","type":"bool"}],"stateMutability":"view","type":"function"},{"inputs":[{"internalType":"uint256","name":"_rdoId","type":"uint256"},{"internalType":"uint8","name":"_actionType","type":"uint8"},{"internalType":"bytes","name":"_contextData","type":"bytes"}],"name":"requestAction","outputs":[{"internalType":"bool","name":"","type":"bool"}],"stateMutability":"nonpayable","type":"function"}],"evm":{"bytecode":{"linkReferences":{},"object":"608060405234801561001057600080fd5b506119d7806100206000396000f3fe608060405234801561001057600080fd5b50600436106100415760003560e01c8063a249ced814610046578063f09deace1461007d578063f1334594146100ad575b600080fd5b610060600480360381019061005b9190610abf565b6100dd565b604051610074989796959493929190610d76565b60405180910390f35b61009760048036038101906100929190610fa9565b6102d2565b6040516100a4919061102e565b60405180910390f35b6100c760048036038101906100c291906110d5565b6105b9565b6040516100d49190611149565b60405180910390f35b60016020528060005260406000206000915090508060000154908060010160009054906101000a900473ffffffffffffffffffffffffffffffffffffffff16908060010160149054906101000a900460ff169080600201549080600301604051806101000160405290816000820160009054906101000a900460ff161515151581526020016000820160019054906101000a900460ff161515151581526020016000820160029054906101000a900460ff161515151581526020016000820160039054906101000a900467ffffffffffffffff1667ffffffffffffffff1667ffffffffffffffff16815260200160008201600b9054906101000a900460ff1660ff1660ff168152602001600182015481526020016002820160009054906101000a900460ff161515151581526020016002820160019054906101000a900460ff1615151515815250509080600601805461023690611193565b80601f016020809104026020016040519081016040528092919081815260200182805461026290611193565b80156102af5780601f10610284576101008083540402835291602001916102af565b820191906000526020600020905b81548152906001019060200180831161029257829003601f168201915b5050505050908060070154908060080160009054906101000a900460ff16905088565b60008060008154809291906102e6906111f3565b919050555060008054905060405180610100016040528082815260200161030b610a6d565b73ffffffffffffffffffffffffffffffffffffffff16815260200186600381111561033957610338610b3c565b5b8152602001878152602001858036038101906103559190611362565b815260200184815260200142815260200160001515815250600160008381526020019081526020016000206000820151816000015560208201518160010160006101000a81548173ffffffffffffffffffffffffffffffffffffffff021916908373ffffffffffffffffffffffffffffffffffffffff16021790555060408201518160010160146101000a81548160ff021916908360038111156103fc576103fb610b3c565b5b02179055506060820151816002015560808201518160030160008201518160000160006101000a81548160ff02191690831515021790555060208201518160000160016101000a81548160ff02191690831515021790555060408201518160000160026101000a81548160ff02191690831515021790555060608201518160000160036101000a81548167ffffffffffffffff021916908367ffffffffffffffff160217905550608082015181600001600b6101000a81548160ff021916908360ff16021790555060a0820151816001015560c08201518160020160006101000a81548160ff02191690831515021790555060e08201518160020160016101000a81548160ff021916908315150217905550505060a0820151816006019081610525919061153c565b5060c0820151816007015560e08201518160080160006101000a81548160ff02191690831515021790555090505061055b610a6d565b73ffffffffffffffffffffffffffffffffffffffff16817fe23504f119fed42d38072fa139960a68945b4f32e3cdb49e49b1eec43b6d2ab18789876040516105a59392919061160e565b60405180910390a380915050949350505050565b6000806001600087815260200190815260200160002090506000816000015403610618576040517f08c379a000000000000000000000000000000000000000000000000000000000815260040161060f90611698565b60405180910390fd5b8060080160009054906101000a900460ff161561069557610637610a6d565b73ffffffffffffffffffffffffffffffffffffffff16867f11778a34a618f771f2b7c45780ff639dd5b51abef43b89d11a5317f1db1d8d3e878460020154604051610683929190611713565b60405180910390a36000915050610a65565b60008160030160000160039054906101000a900467ffffffffffffffff1667ffffffffffffffff161180156106ee57508060030160000160039054906101000a900467ffffffffffffffff1667ffffffffffffffff1642115b15610759576106fb610a6d565b73ffffffffffffffffffffffffffffffffffffffff16867f11778a34a618f771f2b7c45780ff639dd5b51abef43b89d11a5317f1db1d8d3e87846002015460405161074792919061179b565b60405180910390a36000915050610a65565b60008060405180602001604052806000815250905060018760ff1614801561079257508260030160000160019054906101000a900460ff165b156107d857600191506040518060400160405280601481526020017f466f7277617264696e6720666f7262696464656e00000000000000000000000081525090506108aa565b60028760ff161480156107fc57508260030160000160009054906101000a900460ff165b1561084257600191506040518060400160405280601181526020017f436f7079696e6720666f7262696464656e00000000000000000000000000000081525090506108a9565b60038760ff1614801561086657508260030160000160029054906101000a900460ff165b156108a857600191506040518060400160405280601081526020017f4578706f727420666f7262696464656e0000000000000000000000000000000081525090505b5b5b60008787876040516020016108c19392919061183d565b60405160208183030381529060405280519060200120905082156109a4578360030160020160009054906101000a900460ff16156109395760018460080160006101000a81548160ff0219169083151502179055508160405160200161092791906118ef565b60405160208183030381529060405291505b610941610a6d565b73ffffffffffffffffffffffffffffffffffffffff16897f11778a34a618f771f2b7c45780ff639dd5b51abef43b89d11a5317f1db1d8d3e8a87600201548660405161098f93929190611911565b60405180910390a36000945050505050610a65565b600084600301600101541115610a045760018460030160010154036109e5578360030160010160008154809291906109db9061194f565b9190505550610a03565b8360030160010160008154809291906109fd9061194f565b91905055505b5b610a0c610a6d565b73ffffffffffffffffffffffffffffffffffffffff16897f2bff1b4dcf0cd8735679a6c5784e427568023c6920de90a03ff6da076ccc961e8a84604051610a54929190611978565b60405180910390a360019450505050505b949350505050565b600033905090565b6000604051905090565b600080fd5b600080fd5b6000819050919050565b610a9c81610a89565b8114610aa757600080fd5b50565b600081359050610ab981610a93565b92915050565b600060208284031215610ad557610ad4610a7f565b5b6000610ae384828501610aaa565b91505092915050565b610af581610a89565b82525050565b600073ffffffffffffffffffffffffffffffffffffffff82169050919050565b6000610b2682610afb565b9050919050565b610b3681610b1b565b82525050565b7f4e487b7100000000000000000000000000000000000000000000000000000000600052602160045260246000fd5b60048110610b7c57610b7b610b3c565b5b50565b6000819050610b8d82610b6b565b919050565b6000610b9d82610b7f565b9050919050565b610bad81610b92565b82525050565b6000819050919050565b610bc681610bb3565b82525050565b60008115159050919050565b610be181610bcc565b82525050565b600067ffffffffffffffff82169050919050565b610c0481610be7565b82525050565b600060ff82169050919050565b610c2081610c0a565b82525050565b610c2f81610a89565b82525050565b61010082016000820151610c4c6000850182610bd8565b506020820151610c5f6020850182610bd8565b506040820151610c726040850182610bd8565b506060820151610c856060850182610bfb565b506080820151610c986080850182610c17565b5060a0820151610cab60a0850182610c26565b5060c0820151610cbe60c0850182610bd8565b5060e0820151610cd160e0850182610bd8565b50505050565b600081519050919050565b600082825260208201905092915050565b60005b83811015610d11578082015181840152602081019050610cf6565b60008484015250505050565b6000601f19601f8301169050919050565b6000610d3982610cd7565b610d438185610ce2565b9350610d53818560208601610cf3565b610d5c81610d1d565b840191505092915050565b610d7081610bcc565b82525050565b60006101e082019050610d8c600083018b610aec565b610d99602083018a610b2d565b610da66040830189610ba4565b610db36060830188610bbd565b610dc06080830187610c35565b818103610180830152610dd38186610d2e565b9050610de36101a0830185610aec565b610df16101c0830184610d67565b9998505050505050505050565b610e0781610bb3565b8114610e1257600080fd5b50565b600081359050610e2481610dfe565b92915050565b60048110610e3757600080fd5b50565b600081359050610e4981610e2a565b92915050565b600080fd5b60006101008284031215610e6b57610e6a610e4f565b5b81905092915050565b600080fd5b600080fd5b7f4e487b7100000000000000000000000000000000000000000000000000000000600052604160045260246000fd5b610eb682610d1d565b810181811067ffffffffffffffff82111715610ed557610ed4610e7e565b5b80604052505050565b6000610ee8610a75565b9050610ef48282610ead565b919050565b600067ffffffffffffffff821115610f1457610f13610e7e565b5b610f1d82610d1d565b9050602081019050919050565b82818337600083830152505050565b6000610f4c610f4784610ef9565b610ede565b905082815260208101848484011115610f6857610f67610e79565b5b610f73848285610f2a565b509392505050565b600082601f830112610f9057610f8f610e74565b5b8135610fa0848260208601610f39565b91505092915050565b6000806000806101608587031215610fc457610fc3610a7f565b5b6000610fd287828801610e15565b9450506020610fe387828801610e3a565b9350506040610ff487828801610e54565b92505061014085013567ffffffffffffffff81111561101657611015610a84565b5b61102287828801610f7b565b91505092959194509250565b60006020820190506110436000830184610aec565b92915050565b61105281610c0a565b811461105d57600080fd5b50565b60008135905061106f81611049565b92915050565b600080fd5b600080fd5b60008083601f84011261109557611094610e74565b5b8235905067ffffffffffffffff8111156110b2576110b1611075565b5b6020830191508360018202830111156110ce576110cd61107a565b5b9250929050565b600080600080606085870312156110ef576110ee610a7f565b5b60006110fd87828801610aaa565b945050602061110e87828801611060565b935050604085013567ffffffffffffffff81111561112f5761112e610a84565b5b61113b8782880161107f565b925092505092959194509250565b600060208201905061115e6000830184610d67565b92915050565b7f4e487b7100000000000000000000000000000000000000000000000000000000600052602260045260246000fd5b600060028204905060018216806111ab57607f821691505b6020821081036111be576111bd611164565b5b50919050565b7f4e487b7100000000000000000000000000000000000000000000000000000000600052601160045260246000fd5b60006111fe82610a89565b91507fffffffffffffffffffffffffffffffffffffffffffffffffffffffffffffffff82036112305761122f6111c4565b5b600182019050919050565b600080fd5b61124981610bcc565b811461125457600080fd5b50565b60008135905061126681611240565b92915050565b61127581610be7565b811461128057600080fd5b50565b6000813590506112928161126c565b92915050565b600061010082840312156112af576112ae61123b565b5b6112ba610100610ede565b905060006112ca84828501611257565b60008301525060206112de84828501611257565b60208301525060406112f284828501611257565b604083015250606061130684828501611283565b606083015250608061131a84828501611060565b60808301525060a061132e84828501610aaa565b60a08301525060c061134284828501611257565b60c08301525060e061135684828501611257565b60e08301525092915050565b6000610100828403121561137957611378610a7f565b5b600061138784828501611298565b91505092915050565b60008190508160005260206000209050919050565b60006020601f8301049050919050565b600082821b905092915050565b6000600883026113f27fffffffffffffffffffffffffffffffffffffffffffffffffffffffffffffffff826113b5565b6113fc86836113b5565b95508019841693508086168417925050509392505050565b6000819050919050565b600061143961143461142f84610a89565b611414565b610a89565b9050919050565b6000819050919050565b6114538361141e565b61146761145f82611440565b8484546113c2565b825550505050565b600090565b61147c61146f565b61148781848461144a565b505050565b5b818110156114ab576114a0600082611474565b60018101905061148d565b5050565b601f8211156114f0576114c181611390565b6114ca846113a5565b810160208510156114d9578190505b6114ed6114e5856113a5565b83018261148c565b50505b505050565b600082821c905092915050565b6000611513600019846008026114f5565b1980831691505092915050565b600061152c8383611502565b9150826002028217905092915050565b61154582610cd7565b67ffffffffffffffff81111561155e5761155d610e7e565b5b6115688254611193565b6115738282856114af565b600060209050601f8311600181146115a65760008415611594578287015190505b61159e8582611520565b865550611606565b601f1984166115b486611390565b60005b828110156115dc578489015182556001820191506020850194506020810190506115b7565b868310156115f957848901516115f5601f891682611502565b8355505b6001600288020188555050505b505050505050565b60006060820190506116236000830186610ba4565b6116306020830185610bbd565b81810360408301526116428184610d2e565b9050949350505050565b7f52444f20646f6573206e6f742065786973740000000000000000000000000000600082015250565b6000611682601283610ce2565b915061168d8261164c565b602082019050919050565b600060208201905081810360008301526116b181611675565b9050919050565b6116c181610c0a565b82525050565b7f52444f206973207065726d616e656e746c79206c6f636b656400000000000000600082015250565b60006116fd601983610ce2565b9150611708826116c7565b602082019050919050565b600060608201905061172860008301856116b8565b6117356020830184610bbd565b8181036040830152611746816116f0565b90509392505050565b7f52444f2068617320657870697265640000000000000000000000000000000000600082015250565b6000611785600f83610ce2565b91506117908261174f565b602082019050919050565b60006060820190506117b060008301856116b8565b6117bd6020830184610bbd565b81810360408301526117ce81611778565b90509392505050565b60008160f81b9050919050565b60006117ef826117d7565b9050919050565b61180761180282610c0a565b6117e4565b82525050565b600081905092915050565b6000611824838561180d565b9350611831838584610f2a565b82840190509392505050565b600061184982866117f6565b60018201915061185a828486611818565b9150819050949350505050565b600081905092915050565b600061187d82610cd7565b6118878185611867565b9350611897818560208601610cf3565b80840191505092915050565b7f20284f626a656374204c6f636b65642900000000000000000000000000000000600082015250565b60006118d9601083611867565b91506118e4826118a3565b601082019050919050565b60006118fb8284611872565b9150611906826118cc565b915081905092915050565b600060608201905061192660008301866116b8565b6119336020830185610bbd565b81810360408301526119458184610d2e565b9050949350505050565b600061195a82610a89565b91506000820361196d5761196c6111c4565b5b600182039050919050565b600060408201905061198d60008301856116b8565b61199a6020830184610bbd565b939250505056fea26469706673582212207ef11f575da66a306e30a58630d78f51bc53ff63a5d7bd55546550733032d18364736f6c63430008140033","opcodes":"PUSH1 0x80 PUSH1 0x40 MSTORE CALLVALUE DUP1 ISZERO PUSH2 0x10 JUMPI PUSH1 0x0 DUP1 REVERT JUMPDEST POP PUSH2 0x19D7 DUP1 PUSH2 0x20 PUSH1 0x0 CODECOPY PUSH1 0x0 RETURN INVALID PUSH1 0x80 PUSH1 0x40 MSTORE CALLVALUE DUP1 ISZERO PUSH2 0x10 JUMPI PUSH1 0x0 DUP1 REVERT JUMPDEST POP PUSH1 0x4 CALLDATASIZE LT PUSH2 0x41 JUMPI PUSH1 0x0 CALLDATALOAD PUSH1 0xE0 SHR DUP1 PUSH4 0xA249CED8 EQ PUSH2 0x46 JUMPI DUP1 PUSH4 0xF09DEACE EQ PUSH2 0x7D JUMPI DUP1 PUSH4 0xF1334594 EQ PUSH2 0xAD JUMPI JUMPDEST PUSH1 0x0 DUP1 REVERT JUMPDEST PUSH2 0x60 PUSH1 0x4 DUP1 CALLDATASIZE SUB DUP2 ADD SWAP1 PUSH2 0x5B SWAP2 SWAP1 PUSH2 0xABF JUMP JUMPDEST PUSH2 0xDD JUMP JUMPDEST PUSH1 0x40 MLOAD PUSH2 0x74 SWAP9 SWAP8 SWAP7 SWAP6 SWAP5 SWAP4 SWAP3 SWAP2 SWAP1 PUSH2 0xD76 JUMP JUMPDEST PUSH1 0x40 MLOAD DUP1 SWAP2 SUB SWAP1 RETURN JUMPDEST PUSH2 0x97 PUSH1 0x4 DUP1 CALLDATASIZE SUB DUP2 ADD SWAP1 PUSH2 0x92 SWAP2 SWAP1 PUSH2 0xFA9 JUMP JUMPDEST PUSH2 0x2D2 JUMP JUMPDEST PUSH1 0x40 MLOAD PUSH2 0xA4 SWAP2 SWAP1 PUSH2 0x102E JUMP JUMPDEST PUSH1 0x40 MLOAD DUP1 SWAP2 SUB SWAP1 RETURN JUMPDEST PUSH2 0xC7 PUSH1 0x4 DUP1 CALLDATASIZE SUB DUP2 ADD SWAP1 PUSH2 0xC2 SWAP2 SWAP1 PUSH2 0x10D5 JUMP JUMPDEST PUSH2 0x5B9 JUMP JUMPDEST PUSH1 0x40 MLOAD PUSH2 0xD4 SWAP2 SWAP1 PUSH2 0x1149 JUMP JUMPDEST PUSH1 0x40 MLOAD DUP1 SWAP2 SUB SWAP1 RETURN JUMPDEST PUSH1 0x1 PUSH1 0x20 MSTORE DUP1 PUSH1 0x0 MSTORE PUSH1 0x40 PUSH1 0x0 KECCAK256 PUSH1 0x0 SWAP2 POP SWAP1 POP DUP1 PUSH1 0x0 ADD SLOAD SWAP1 DUP1 PUSH1 0x1 ADD PUSH1 0x0 SWAP1 SLOAD SWAP1 PUSH2 0x100 EXP SWAP1 DIV PUSH20 0xFFFFFFFFFFFFFFFFFFFFFFFFFFFFFFFFFFFFFFFF AND SWAP1 DUP1 PUSH1 0x1 ADD PUSH1 0x14 SWAP1 SLOAD SWAP1 PUSH2 0x100 EXP SWAP1 DIV PUSH1 0xFF AND SWAP1 DUP1 PUSH1 0x2 ADD SLOAD SWAP1 DUP1 PUSH1 0x3 ADD PUSH1 0x40 MLOAD DUP1 PUSH2 0x100 ADD PUSH1 0x40 MSTORE SWAP1 DUP2 PUSH1 0x0 DUP3 ADD PUSH1 0x0 SWAP1 SLOAD SWAP1 PUSH2 0x100 EXP SWAP1 DIV PUSH1 0xFF AND ISZERO ISZERO ISZERO ISZERO DUP2 MSTORE PUSH1 0x20 ADD PUSH1 0x0 DUP3 ADD PUSH1 0x1 SWAP1 SLOAD SWAP1 PUSH2 0x100 EXP SWAP1 DIV PUSH1 0xFF AND ISZERO ISZERO ISZERO ISZERO DUP2 MSTORE PUSH1 0x20 ADD PUSH1 0x0 DUP3 ADD PUSH1 0x2 SWAP1 SLOAD SWAP1 PUSH2 0x100 EXP SWAP1 DIV PUSH1 0xFF AND ISZERO ISZERO ISZERO ISZERO DUP2 MSTORE PUSH1 0x20 ADD PUSH1 0x0 DUP3 ADD PUSH1 0x3 SWAP1 SLOAD SWAP1 PUSH2 0x100 EXP SWAP1 DIV PUSH8 0xFFFFFFFFFFFFFFFF AND PUSH8 0xFFFFFFFFFFFFFFFF AND PUSH8 0xFFFFFFFFFFFFFFFF AND DUP2 MSTORE PUSH1 0x20 ADD PUSH1 0x0 DUP3 ADD PUSH1 0xB SWAP1 SLOAD SWAP1 PUSH2 0x100 EXP SWAP1 DIV PUSH1 0xFF AND PUSH1 0xFF AND PUSH1 0xFF AND DUP2 MSTORE PUSH1 0x20 ADD PUSH1 0x1 DUP3 ADD SLOAD DUP2 MSTORE PUSH1 0x20 ADD PUSH1 0x2 DUP3 ADD PUSH1 0x0 SWAP1 SLOAD SWAP1 PUSH2 0x100 EXP SWAP1 DIV PUSH1 0xFF AND ISZERO ISZERO ISZERO ISZERO DUP2 MSTORE PUSH1 0x20 ADD PUSH1 0x2 DUP3 ADD PUSH1 0x1 SWAP1 SLOAD SWAP1 PUSH2 0x100 EXP SWAP1 DIV PUSH1 0xFF AND ISZERO ISZERO ISZERO ISZERO DUP2 MSTORE POP POP SWAP1 DUP1 PUSH1 0x6 ADD DUP1 SLOAD PUSH2 0x236 SWAP1 PUSH2 0x1193 JUMP JUMPDEST DUP1 PUSH1 0x1F ADD PUSH1 0x20 DUP1 SWAP2 DIV MUL PUSH1 0x20 ADD PUSH1 0x40 MLOAD SWAP1 DUP2 ADD PUSH1 0x40 MSTORE DUP1 SWAP3 SWAP2 SWAP1 DUP2 DUP2 MSTORE PUSH1 0x20 ADD DUP3 DUP1 SLOAD PUSH2 0x262 SWAP1 PUSH2 0x1193 JUMP JUMPDEST DUP1 ISZERO PUSH2 0x2AF JUMPI DUP1 PUSH1 0x1F LT PUSH2 0x284 JUMPI PUSH2 0x100 DUP1 DUP4 SLOAD DIV MUL DUP4 MSTORE SWAP2 PUSH1 0x20 ADD SWAP2 PUSH2 0x2AF JUMP JUMPDEST DUP3 ADD SWAP2 SWAP1 PUSH1 0x0 MSTORE PUSH1 0x20 PUSH1 0x0 KECCAK256 SWAP1 JUMPDEST DUP2 SLOAD DUP2 MSTORE SWAP1 PUSH1 0x1 ADD SWAP1 PUSH1 0x20 ADD DUP1 DUP4 GT PUSH2 0x292 JUMPI DUP3 SWAP1 SUB PUSH1 0x1F AND DUP3 ADD SWAP2 JUMPDEST POP POP POP POP POP SWAP1 DUP1 PUSH1 0x7 ADD SLOAD SWAP1 DUP1 PUSH1 0x8 ADD PUSH1 0x0 SWAP1 SLOAD SWAP1 PUSH2 0x100 EXP SWAP1 DIV PUSH1 0xFF AND SWAP1 POP DUP9 JUMP JUMPDEST PUSH1 0x0 DUP1 PUSH1 0x0 DUP2 SLOAD DUP1 SWAP3 SWAP2 SWAP1 PUSH2 0x2E6 SWAP1 PUSH2 0x11F3 JUMP JUMPDEST SWAP2 SWAP1 POP SSTORE POP PUSH1 0x0 DUP1 SLOAD SWAP1 POP PUSH1 0x40 MLOAD DUP1 PUSH2 0x100 ADD PUSH1 0x40 MSTORE DUP1 DUP3 DUP2 MSTORE PUSH1 0x20 ADD PUSH2 0x30B PUSH2 0xA6D JUMP JUMPDEST PUSH20 0xFFFFFFFFFFFFFFFFFFFFFFFFFFFFFFFFFFFFFFFF AND DUP2 MSTORE PUSH1 0x20 ADD DUP7 PUSH1 0x3 DUP2 GT ISZERO PUSH2 0x339 JUMPI PUSH2 0x338 PUSH2 0xB3C JUMP JUMPDEST JUMPDEST DUP2 MSTORE PUSH1 0x20 ADD DUP8 DUP2 MSTORE PUSH1 0x20 ADD DUP6 DUP1 CALLDATASIZE SUB DUP2 ADD SWAP1 PUSH2 0x355 SWAP2 SWAP1 PUSH2 0x1362 JUMP JUMPDEST DUP2 MSTORE PUSH1 0x20 ADD DUP5 DUP2 MSTORE PUSH1 0x20 ADD TIMESTAMP DUP2 MSTORE PUSH1 0x20 ADD PUSH1 0x0 ISZERO ISZERO DUP2 MSTORE POP PUSH1 0x1 PUSH1 0x0 DUP4 DUP2 MSTORE PUSH1 0x20 ADD SWAP1 DUP2 MSTORE PUSH1 0x20 ADD PUSH1 0x0 KECCAK256 PUSH1 0x0 DUP3 ADD MLOAD DUP2 PUSH1 0x0 ADD SSTORE PUSH1 0x20 DUP3 ADD MLOAD DUP2 PUSH1 0x1 ADD PUSH1 0x0 PUSH2 0x100 EXP DUP2 SLOAD DUP2 PUSH20 0xFFFFFFFFFFFFFFFFFFFFFFFFFFFFFFFFFFFFFFFF MUL NOT AND SWAP1 DUP4 PUSH20 0xFFFFFFFFFFFFFFFFFFFFFFFFFFFFFFFFFFFFFFFF AND MUL OR SWAP1 SSTORE POP PUSH1 0x40 DUP3 ADD MLOAD DUP2 PUSH1 0x1 ADD PUSH1 0x14 PUSH2 0x100 EXP DUP2 SLOAD DUP2 PUSH1 0xFF MUL NOT AND SWAP1 DUP4 PUSH1 0x3 DUP2 GT ISZERO PUSH2 0x3FC JUMPI PUSH2 0x3FB PUSH2 0xB3C JUMP JUMPDEST JUMPDEST MUL OR SWAP1 SSTORE POP PUSH1 0x60 DUP3 ADD MLOAD DUP2 PUSH1 0x2 ADD SSTORE PUSH1 0x80 DUP3 ADD MLOAD DUP2 PUSH1 0x3 ADD PUSH1 0x0 DUP3 ADD MLOAD DUP2 PUSH1 0x0 ADD PUSH1 0x0 PUSH2 0x100 EXP DUP2 SLOAD DUP2 PUSH1 0xFF MUL NOT AND SWAP1 DUP4 ISZERO ISZERO MUL OR SWAP1 SSTORE POP PUSH1 0x20 DUP3 ADD MLOAD DUP2 PUSH1 0x0 ADD PUSH1 0x1 PUSH2 0x100 EXP DUP2 SLOAD DUP2 PUSH1 0xFF MUL NOT AND SWAP1 DUP4 ISZERO ISZERO MUL OR SWAP1 SSTORE POP PUSH1 0x40 DUP3 ADD MLOAD DUP2 PUSH1 0x0 ADD PUSH1 0x2 PUSH2 0x100 EXP DUP2 SLOAD DUP2 PUSH1 0xFF MUL NOT AND SWAP1 DUP4 ISZERO ISZERO MUL OR SWAP1 SSTORE POP PUSH1 0x60 DUP3 ADD MLOAD DUP2 PUSH1 0x0 ADD PUSH1 0x3 PUSH2 0x100 EXP DUP2 SLOAD DUP2 PUSH8 0xFFFFFFFFFFFFFFFF MUL NOT AND SWAP1 DUP4 PUSH8 0xFFFFFFFFFFFFFFFF AND MUL OR SWAP1 SSTORE POP PUSH1 0x80 DUP3 ADD MLOAD DUP2 PUSH1 0x0 ADD PUSH1 0xB PUSH2 0x100 EXP DUP2 SLOAD DUP2 PUSH1 0xFF MUL NOT AND SWAP1 DUP4 PUSH1 0xFF AND MUL OR SWAP1 SSTORE POP PUSH1 0xA0 DUP3 ADD MLOAD DUP2 PUSH1 0x1 ADD SSTORE PUSH1 0xC0 DUP3 ADD MLOAD DUP2 PUSH1 0x2 ADD PUSH1 0x0 PUSH2 0x100 EXP DUP2 SLOAD DUP2 PUSH1 0xFF MUL NOT AND SWAP1 DUP4 ISZERO ISZERO MUL OR SWAP1 SSTORE POP PUSH1 0xE0 DUP3 ADD MLOAD DUP2 PUSH1 0x2 ADD PUSH1 0x1 PUSH2 0x100 EXP DUP2 SLOAD DUP2 PUSH1 0xFF MUL NOT AND SWAP1 DUP4 ISZERO ISZERO MUL OR SWAP1 SSTORE POP POP POP PUSH1 0xA0 DUP3 ADD MLOAD DUP2 PUSH1 0x6 ADD SWAP1 DUP2 PUSH2 0x525 SWAP2 SWAP1 PUSH2 0x153C JUMP JUMPDEST POP PUSH1 0xC0 DUP3 ADD MLOAD DUP2 PUSH1 0x7 ADD SSTORE PUSH1 0xE0 DUP3 ADD MLOAD DUP2 PUSH1 0x8 ADD PUSH1 0x0 PUSH2 0x100 EXP DUP2 SLOAD DUP2 PUSH1 0xFF MUL NOT AND SWAP1 DUP4 ISZERO ISZERO MUL OR SWAP1 SSTORE POP SWAP1 POP POP PUSH2 0x55B PUSH2 0xA6D JUMP JUMPDEST PUSH20 0xFFFFFFFFFFFFFFFFFFFFFFFFFFFFFFFFFFFFFFFF AND DUP2 PUSH32 0xE23504F119FED42D38072FA139960A68945B4F32E3CDB49E49B1EEC43B6D2AB1 DUP8 DUP10 DUP8 PUSH1 0x40 MLOAD PUSH2 0x5A5 SWAP4 SWAP3 SWAP2 SWAP1 PUSH2 0x160E JUMP JUMPDEST PUSH1 0x40 MLOAD DUP1 SWAP2 SUB SWAP1 LOG3 DUP1 SWAP2 POP POP SWAP5 SWAP4 POP POP POP POP JUMP JUMPDEST PUSH1 0x0 DUP1 PUSH1 0x1 PUSH1 0x0 DUP8 DUP2 MSTORE PUSH1 0x20 ADD SWAP1 DUP2 MSTORE PUSH1 0x20 ADD PUSH1 0x0 KECCAK256 SWAP1 POP PUSH1 0x0 DUP2 PUSH1 0x0 ADD SLOAD SUB PUSH2 0x618 JUMPI PUSH1 0x40 MLOAD PUSH32 0x8C379A000000000000000000000000000000000000000000000000000000000 DUP2 MSTORE PUSH1 0x4 ADD PUSH2 0x60F SWAP1 PUSH2 0x1698 JUMP JUMPDEST PUSH1 0x40 MLOAD DUP1 SWAP2 SUB SWAP1 REVERT JUMPDEST DUP1 PUSH1 0x8 ADD PUSH1 0x0 SWAP1 SLOAD SWAP1 PUSH2 0x100 EXP SWAP1 DIV PUSH1 0xFF AND ISZERO PUSH2 0x695 JUMPI PUSH2 0x637 PUSH2 0xA6D JUMP JUMPDEST PUSH20 0xFFFFFFFFFFFFFFFFFFFFFFFFFFFFFFFFFFFFFFFF AND DUP7 PUSH32 0x11778A34A618F771F2B7C45780FF639DD5B51ABEF43B89D11A5317F1DB1D8D3E DUP8 DUP5 PUSH1 0x2 ADD SLOAD PUSH1 0x40 MLOAD PUSH2 0x683 SWAP3 SWAP2 SWAP1 PUSH2 0x1713 JUMP JUMPDEST PUSH1 0x40 MLOAD DUP1 SWAP2 SUB SWAP1 LOG3 PUSH1 0x0 SWAP2 POP POP PUSH2 0xA65 JUMP JUMPDEST PUSH1 0x0 DUP2 PUSH1 0x3 ADD PUSH1 0x0 ADD PUSH1 0x3 SWAP1 SLOAD SWAP1 PUSH2 0x100 EXP SWAP1 DIV PUSH8 0xFFFFFFFFFFFFFFFF AND PUSH8 0xFFFFFFFFFFFFFFFF AND GT DUP1 ISZERO PUSH2 0x6EE JUMPI POP DUP1 PUSH1 0x3 ADD PUSH1 0x0 ADD PUSH1 0x3 SWAP1 SLOAD SWAP1 PUSH2 0x100 EXP SWAP1 DIV PUSH8 0xFFFFFFFFFFFFFFFF AND PUSH8 0xFFFFFFFFFFFFFFFF AND TIMESTAMP GT JUMPDEST ISZERO PUSH2 0x759 JUMPI PUSH2 0x6FB PUSH2 0xA6D JUMP JUMPDEST PUSH20 0xFFFFFFFFFFFFFFFFFFFFFFFFFFFFFFFFFFFFFFFF AND DUP7 PUSH32 0x11778A34A618F771F2B7C45780FF639DD5B51ABEF43B89D11A5317F1DB1D8D3E DUP8 DUP5 PUSH1 0x2 ADD SLOAD PUSH1 0x40 MLOAD PUSH2 0x747 SWAP3 SWAP2 SWAP1 PUSH2 0x179B JUMP JUMPDEST PUSH1 0x40 MLOAD DUP1 SWAP2 SUB SWAP1 LOG3 PUSH1 0x0 SWAP2 POP POP PUSH2 0xA65 JUMP JUMPDEST PUSH1 0x0 DUP1 PUSH1 0x40 MLOAD DUP1 PUSH1 0x20 ADD PUSH1 0x40 MSTORE DUP1 PUSH1 0x0 DUP2 MSTORE POP SWAP1 POP PUSH1 0x1 DUP8 PUSH1 0xFF AND EQ DUP1 ISZERO PUSH2 0x792 JUMPI POP DUP3 PUSH1 0x3 ADD PUSH1 0x0 ADD PUSH1 0x1 SWAP1 SLOAD SWAP1 PUSH2 0x100 EXP SWAP1 DIV PUSH1 0xFF AND JUMPDEST ISZERO PUSH2 0x7D8 JUMPI PUSH1 0x1 SWAP2 POP PUSH1 0x40 MLOAD DUP1 PUSH1 0x40 ADD PUSH1 0x40 MSTORE DUP1 PUSH1 0x14 DUP2 MSTORE PUSH1 0x20 ADD PUSH32 0x466F7277617264696E6720666F7262696464656E000000000000000000000000 DUP2 MSTORE POP SWAP1 POP PUSH2 0x8AA JUMP JUMPDEST PUSH1 0x2 DUP8 PUSH1 0xFF AND EQ DUP1 ISZERO PUSH2 0x7FC JUMPI POP DUP3 PUSH1 0x3 ADD PUSH1 0x0 ADD PUSH1 0x0 SWAP1 SLOAD SWAP1 PUSH2 0x100 EXP SWAP1 DIV PUSH1 0xFF AND JUMPDEST ISZERO PUSH2 0x842 JUMPI PUSH1 0x1 SWAP2 POP PUSH1 0x40 MLOAD DUP1 PUSH1 0x40 ADD PUSH1 0x40 MSTORE DUP1 PUSH1 0x11 DUP2 MSTORE PUSH1 0x20 ADD PUSH32 0x436F7079696E6720666F7262696464656E000000000000000000000000000000 DUP2 MSTORE POP SWAP1 POP PUSH2 0x8A9 JUMP JUMPDEST PUSH1 0x3 DUP8 PUSH1 0xFF AND EQ DUP1 ISZERO PUSH2 0x866 JUMPI POP DUP3 PUSH1 0x3 ADD PUSH1 0x0 ADD PUSH1 0x2 SWAP1 SLOAD SWAP1 PUSH2 0x100 EXP SWAP1 DIV PUSH1 0xFF AND JUMPDEST ISZERO PUSH2 0x8A8 JUMPI PUSH1 0x1 SWAP2 POP PUSH1 0x40 MLOAD DUP1 PUSH1 0x40 ADD PUSH1 0x40 MSTORE DUP1 PUSH1 0x10 DUP2 MSTORE PUSH1 0x20 ADD PUSH32 0x4578706F727420666F7262696464656E00000000000000000000000000000000 DUP2 MSTORE POP SWAP1 POP JUMPDEST JUMPDEST JUMPDEST PUSH1 0x0 DUP8 DUP8 DUP8 PUSH1 0x40 MLOAD PUSH1 0x20 ADD PUSH2 0x8C1 SWAP4 SWAP3 SWAP2 SWAP1 PUSH2 0x183D JUMP JUMPDEST PUSH1 0x40 MLOAD PUSH1 0x20 DUP2 DUP4 SUB SUB DUP2 MSTORE SWAP1 PUSH1 0x40 MSTORE DUP1 MLOAD SWAP1 PUSH1 0x20 ADD KECCAK256 SWAP1 POP DUP3 ISZERO PUSH2 0x9A4 JUMPI DUP4 PUSH1 0x3 ADD PUSH1 0x2 ADD PUSH1 0x0 SWAP1 SLOAD SWAP1 PUSH2 0x100 EXP SWAP1 DIV PUSH1 0xFF AND ISZERO PUSH2 0x939 JUMPI PUSH1 0x1 DUP5 PUSH1 0x8 ADD PUSH1 0x0 PUSH2 0x100 EXP DUP2 SLOAD DUP2 PUSH1 0xFF MUL NOT AND SWAP1 DUP4 ISZERO ISZERO MUL OR SWAP1 SSTORE POP DUP2 PUSH1 0x40 MLOAD PUSH1 0x20 ADD PUSH2 0x927 SWAP2 SWAP1 PUSH2 0x18EF JUMP JUMPDEST PUSH1 0x40 MLOAD PUSH1 0x20 DUP2 DUP4 SUB SUB DUP2 MSTORE SWAP1 PUSH1 0x40 MSTORE SWAP2 POP JUMPDEST PUSH2 0x941 PUSH2 0xA6D JUMP JUMPDEST PUSH20 0xFFFFFFFFFFFFFFFFFFFFFFFFFFFFFFFFFFFFFFFF AND DUP10 PUSH32 0x11778A34A618F771F2B7C45780FF639DD5B51ABEF43B89D11A5317F1DB1D8D3E DUP11 DUP8 PUSH1 0x2 ADD SLOAD DUP7 PUSH1 0x40 MLOAD PUSH2 0x98F SWAP4 SWAP3 SWAP2 SWAP1 PUSH2 0x1911 JUMP JUMPDEST PUSH1 0x40 MLOAD DUP1 SWAP2 SUB SWAP1 LOG3 PUSH1 0x0 SWAP5 POP POP POP POP POP PUSH2 0xA65 JUMP JUMPDEST PUSH1 0x0 DUP5 PUSH1 0x3 ADD PUSH1 0x1 ADD SLOAD GT ISZERO PUSH2 0xA04 JUMPI PUSH1 0x1 DUP5 PUSH1 0x3 ADD PUSH1 0x1 ADD SLOAD SUB PUSH2 0x9E5 JUMPI DUP4 PUSH1 0x3 ADD PUSH1 0x1 ADD PUSH1 0x0 DUP2 SLOAD DUP1 SWAP3 SWAP2 SWAP1 PUSH2 0x9DB SWAP1 PUSH2 0x194F JUMP JUMPDEST SWAP2 SWAP1 POP SSTORE POP PUSH2 0xA03 JUMP JUMPDEST DUP4 PUSH1 0x3 ADD PUSH1 0x1 ADD PUSH1 0x0 DUP2 SLOAD DUP1 SWAP3 SWAP2 SWAP1 PUSH2 0x9FD SWAP1 PUSH2 0x194F JUMP JUMPDEST SWAP2 SWAP1 POP SSTORE POP JUMPDEST JUMPDEST PUSH2 0xA0C PUSH2 0xA6D JUMP JUMPDEST PUSH20 0xFFFFFFFFFFFFFFFFFFFFFFFFFFFFFFFFFFFFFFFF AND DUP10 PUSH32 0x2BFF1B4DCF0CD8735679A6C5784E427568023C6920DE90A03FF6DA076CCC961E DUP11 DUP5 PUSH1 0x40 MLOAD PUSH2 0xA54 SWAP3 SWAP2 SWAP1 PUSH2 0x1978 JUMP JUMPDEST PUSH1 0x40 MLOAD DUP1 SWAP2 SUB SWAP1 LOG3 PUSH1 0x1 SWAP5 POP POP POP POP POP JUMPDEST SWAP5 SWAP4 POP POP POP POP JUMP JUMPDEST PUSH1 0x0 CALLER SWAP1 POP SWAP1 JUMP JUMPDEST PUSH1 0x0 PUSH1 0x40 MLOAD SWAP1 POP SWAP1 JUMP JUMPDEST PUSH1 0x0 DUP1 REVERT JUMPDEST PUSH1 0x0 DUP1 REVERT JUMPDEST PUSH1 0x0 DUP2 SWAP1 POP SWAP2 SWAP1 POP JUMP JUMPDEST PUSH2 0xA9C DUP2 PUSH2 0xA89 JUMP JUMPDEST DUP2 EQ PUSH2 0xAA7 JUMPI PUSH1 0x0 DUP1 REVERT JUMPDEST POP JUMP JUMPDEST PUSH1 0x0 DUP2 CALLDATALOAD SWAP1 POP PUSH2 0xAB9 DUP2 PUSH2 0xA93 JUMP JUMPDEST SWAP3 SWAP2 POP POP JUMP JUMPDEST PUSH1 0x0 PUSH1 0x20 DUP3 DUP5 SUB SLT ISZERO PUSH2 0xAD5 JUMPI PUSH2 0xAD4 PUSH2 0xA7F JUMP JUMPDEST JUMPDEST PUSH1 0x0 PUSH2 0xAE3 DUP5 DUP3 DUP6 ADD PUSH2 0xAAA JUMP JUMPDEST SWAP2 POP POP SWAP3 SWAP2 POP POP JUMP JUMPDEST PUSH2 0xAF5 DUP2 PUSH2 0xA89 JUMP JUMPDEST DUP3 MSTORE POP POP JUMP JUMPDEST PUSH1 0x0 PUSH20 0xFFFFFFFFFFFFFFFFFFFFFFFFFFFFFFFFFFFFFFFF DUP3 AND SWAP1 POP SWAP2 SWAP1 POP JUMP JUMPDEST PUSH1 0x0 PUSH2 0xB26 DUP3 PUSH2 0xAFB JUMP JUMPDEST SWAP1 POP SWAP2 SWAP1 POP JUMP JUMPDEST PUSH2 0xB36 DUP2 PUSH2 0xB1B JUMP JUMPDEST DUP3 MSTORE POP POP JUMP JUMPDEST PUSH32 0x4E487B7100000000000000000000000000000000000000000000000000000000 PUSH1 0x0 MSTORE PUSH1 0x21 PUSH1 0x4 MSTORE PUSH1 0x24 PUSH1 0x0 REVERT JUMPDEST PUSH1 0x4 DUP2 LT PUSH2 0xB7C JUMPI PUSH2 0xB7B PUSH2 0xB3C JUMP JUMPDEST JUMPDEST POP JUMP JUMPDEST PUSH1 0x0 DUP2 SWAP1 POP PUSH2 0xB8D DUP3 PUSH2 0xB6B JUMP JUMPDEST SWAP2 SWAP1 POP JUMP JUMPDEST PUSH1 0x0 PUSH2 0xB9D DUP3 PUSH2 0xB7F JUMP JUMPDEST SWAP1 POP SWAP2 SWAP1 POP JUMP JUMPDEST PUSH2 0xBAD DUP2 PUSH2 0xB92 JUMP JUMPDEST DUP3 MSTORE POP POP JUMP JUMPDEST PUSH1 0x0 DUP2 SWAP1 POP SWAP2 SWAP1 POP JUMP JUMPDEST PUSH2 0xBC6 DUP2 PUSH2 0xBB3 JUMP JUMPDEST DUP3 MSTORE POP POP JUMP JUMPDEST PUSH1 0x0 DUP2 ISZERO ISZERO SWAP1 POP SWAP2 SWAP1 POP JUMP JUMPDEST PUSH2 0xBE1 DUP2 PUSH2 0xBCC JUMP JUMPDEST DUP3 MSTORE POP POP JUMP JUMPDEST PUSH1 0x0 PUSH8 0xFFFFFFFFFFFFFFFF DUP3 AND SWAP1 POP SWAP2 SWAP1 POP JUMP JUMPDEST PUSH2 0xC04 DUP2 PUSH2 0xBE7 JUMP JUMPDEST DUP3 MSTORE POP POP JUMP JUMPDEST PUSH1 0x0 PUSH1 0xFF DUP3 AND SWAP1 POP SWAP2 SWAP1 POP JUMP JUMPDEST PUSH2 0xC20 DUP2 PUSH2 0xC0A JUMP JUMPDEST DUP3 MSTORE POP POP JUMP JUMPDEST PUSH2 0xC2F DUP2 PUSH2 0xA89 JUMP JUMPDEST DUP3 MSTORE POP POP JUMP JUMPDEST PUSH2 0x100 DUP3 ADD PUSH1 0x0 DUP3 ADD MLOAD PUSH2 0xC4C PUSH1 0x0 DUP6 ADD DUP3 PUSH2 0xBD8 JUMP JUMPDEST POP PUSH1 0x20 DUP3 ADD MLOAD PUSH2 0xC5F PUSH1 0x20 DUP6 ADD DUP3 PUSH2 0xBD8 JUMP JUMPDEST POP PUSH1 0x40 DUP3 ADD MLOAD PUSH2 0xC72 PUSH1 0x40 DUP6 ADD DUP3 PUSH2 0xBD8 JUMP JUMPDEST POP PUSH1 0x60 DUP3 ADD MLOAD PUSH2 0xC85 PUSH1 0x60 DUP6 ADD DUP3 PUSH2 0xBFB JUMP JUMPDEST POP PUSH1 0x80 DUP3 ADD MLOAD PUSH2 0xC98 PUSH1 0x80 DUP6 ADD DUP3 PUSH2 0xC17 JUMP JUMPDEST POP PUSH1 0xA0 DUP3 ADD MLOAD PUSH2 0xCAB PUSH1 0xA0 DUP6 ADD DUP3 PUSH2 0xC26 JUMP JUMPDEST POP PUSH1 0xC0 DUP3 ADD MLOAD PUSH2 0xCBE PUSH1 0xC0 DUP6 ADD DUP3 PUSH2 0xBD8 JUMP JUMPDEST POP PUSH1 0xE0 DUP3 ADD MLOAD PUSH2 0xCD1 PUSH1 0xE0 DUP6 ADD DUP3 PUSH2 0xBD8 JUMP JUMPDEST POP POP POP POP JUMP JUMPDEST PUSH1 0x0 DUP2 MLOAD SWAP1 POP SWAP2 SWAP1 POP JUMP JUMPDEST PUSH1 0x0 DUP3 DUP3 MSTORE PUSH1 0x20 DUP3 ADD SWAP1 POP SWAP3 SWAP2 POP POP JUMP JUMPDEST PUSH1 0x0 JUMPDEST DUP4 DUP2 LT ISZERO PUSH2 0xD11 JUMPI DUP1 DUP3 ADD MLOAD DUP2 DUP5 ADD MSTORE PUSH1 0x20 DUP2 ADD SWAP1 POP PUSH2 0xCF6 JUMP JUMPDEST PUSH1 0x0 DUP5 DUP5 ADD MSTORE POP POP POP POP JUMP JUMPDEST PUSH1 0x0 PUSH1 0x1F NOT PUSH1 0x1F DUP4 ADD AND SWAP1 POP SWAP2 SWAP1 POP JUMP JUMPDEST PUSH1 0x0 PUSH2 0xD39 DUP3 PUSH2 0xCD7 JUMP JUMPDEST PUSH2 0xD43 DUP2 DUP6 PUSH2 0xCE2 JUMP JUMPDEST SWAP4 POP PUSH2 0xD53 DUP2 DUP6 PUSH1 0x20 DUP7 ADD PUSH2 0xCF3 JUMP JUMPDEST PUSH2 0xD5C DUP2 PUSH2 0xD1D JUMP JUMPDEST DUP5 ADD SWAP2 POP POP SWAP3 SWAP2 POP POP JUMP JUMPDEST PUSH2 0xD70 DUP2 PUSH2 0xBCC JUMP JUMPDEST DUP3 MSTORE POP POP JUMP JUMPDEST PUSH1 0x0 PUSH2 0x1E0 DUP3 ADD SWAP1 POP PUSH2 0xD8C PUSH1 0x0 DUP4 ADD DUP12 PUSH2 0xAEC JUMP JUMPDEST PUSH2 0xD99 PUSH1 0x20 DUP4 ADD DUP11 PUSH2 0xB2D JUMP JUMPDEST PUSH2 0xDA6 PUSH1 0x40 DUP4 ADD DUP10 PUSH2 0xBA4 JUMP JUMPDEST PUSH2 0xDB3 PUSH1 0x60 DUP4 ADD DUP9 PUSH2 0xBBD JUMP JUMPDEST PUSH2 0xDC0 PUSH1 0x80 DUP4 ADD DUP8 PUSH2 0xC35 JUMP JUMPDEST DUP2 DUP2 SUB PUSH2 0x180 DUP4 ADD MSTORE PUSH2 0xDD3 DUP2 DUP7 PUSH2 0xD2E JUMP JUMPDEST SWAP1 POP PUSH2 0xDE3 PUSH2 0x1A0 DUP4 ADD DUP6 PUSH2 0xAEC JUMP JUMPDEST PUSH2 0xDF1 PUSH2 0x1C0 DUP4 ADD DUP5 PUSH2 0xD67 JUMP JUMPDEST SWAP10 SWAP9 POP POP POP POP POP POP POP POP POP JUMP JUMPDEST PUSH2 0xE07 DUP2 PUSH2 0xBB3 JUMP JUMPDEST DUP2 EQ PUSH2 0xE12 JUMPI PUSH1 0x0 DUP1 REVERT JUMPDEST POP JUMP JUMPDEST PUSH1 0x0 DUP2 CALLDATALOAD SWAP1 POP PUSH2 0xE24 DUP2 PUSH2 0xDFE JUMP JUMPDEST SWAP3 SWAP2 POP POP JUMP JUMPDEST PUSH1 0x4 DUP2 LT PUSH2 0xE37 JUMPI PUSH1 0x0 DUP1 REVERT JUMPDEST POP JUMP JUMPDEST PUSH1 0x0 DUP2 CALLDATALOAD SWAP1 POP PUSH2 0xE49 DUP2 PUSH2 0xE2A JUMP JUMPDEST SWAP3 SWAP2 POP POP JUMP JUMPDEST PUSH1 0x0 DUP1 REVERT JUMPDEST PUSH1 0x0 PUSH2 0x100 DUP3 DUP5 SUB SLT ISZERO PUSH2 0xE6B JUMPI PUSH2 0xE6A PUSH2 0xE4F JUMP JUMPDEST JUMPDEST DUP2 SWAP1 POP SWAP3 SWAP2 POP POP JUMP JUMPDEST PUSH1 0x0 DUP1 REVERT JUMPDEST PUSH1 0x0 DUP1 REVERT JUMPDEST PUSH32 0x4E487B7100000000000000000000000000000000000000000000000000000000 PUSH1 0x0 MSTORE PUSH1 0x41 PUSH1 0x4 MSTORE PUSH1 0x24 PUSH1 0x0 REVERT JUMPDEST PUSH2 0xEB6 DUP3 PUSH2 0xD1D JUMP JUMPDEST DUP2 ADD DUP2 DUP2 LT PUSH8 0xFFFFFFFFFFFFFFFF DUP3 GT OR ISZERO PUSH2 0xED5 JUMPI PUSH2 0xED4 PUSH2 0xE7E JUMP JUMPDEST JUMPDEST DUP1 PUSH1 0x40 MSTORE POP POP POP JUMP JUMPDEST PUSH1 0x0 PUSH2 0xEE8 PUSH2 0xA75 JUMP JUMPDEST SWAP1 POP PUSH2 0xEF4 DUP3 DUP3 PUSH2 0xEAD JUMP JUMPDEST SWAP2 SWAP1 POP JUMP JUMPDEST PUSH1 0x0 PUSH8 0xFFFFFFFFFFFFFFFF DUP3 GT ISZERO PUSH2 0xF14 JUMPI PUSH2 0xF13 PUSH2 0xE7E JUMP JUMPDEST JUMPDEST PUSH2 0xF1D DUP3 PUSH2 0xD1D JUMP JUMPDEST SWAP1 POP PUSH1 0x20 DUP2 ADD SWAP1 POP SWAP2 SWAP1 POP JUMP JUMPDEST DUP3 DUP2 DUP4 CALLDATACOPY PUSH1 0x0 DUP4 DUP4 ADD MSTORE POP POP POP JUMP JUMPDEST PUSH1 0x0 PUSH2 0xF4C PUSH2 0xF47 DUP5 PUSH2 0xEF9 JUMP JUMPDEST PUSH2 0xEDE JUMP JUMPDEST SWAP1 POP DUP3 DUP2 MSTORE PUSH1 0x20 DUP2 ADD DUP5 DUP5 DUP5 ADD GT ISZERO PUSH2 0xF68 JUMPI PUSH2 0xF67 PUSH2 0xE79 JUMP JUMPDEST JUMPDEST PUSH2 0xF73 DUP5 DUP3 DUP6 PUSH2 0xF2A JUMP JUMPDEST POP SWAP4 SWAP3 POP POP POP JUMP JUMPDEST PUSH1 0x0 DUP3 PUSH1 0x1F DUP4 ADD SLT PUSH2 0xF90 JUMPI PUSH2 0xF8F PUSH2 0xE74 JUMP JUMPDEST JUMPDEST DUP2 CALLDATALOAD PUSH2 0xFA0 DUP5 DUP3 PUSH1 0x20 DUP7 ADD PUSH2 0xF39 JUMP JUMPDEST SWAP2 POP POP SWAP3 SWAP2 POP POP JUMP JUMPDEST PUSH1 0x0 DUP1 PUSH1 0x0 DUP1 PUSH2 0x160 DUP6 DUP8 SUB SLT ISZERO PUSH2 0xFC4 JUMPI PUSH2 0xFC3 PUSH2 0xA7F JUMP JUMPDEST JUMPDEST PUSH1 0x0 PUSH2 0xFD2 DUP8 DUP3 DUP9 ADD PUSH2 0xE15 JUMP JUMPDEST SWAP5 POP POP PUSH1 0x20 PUSH2 0xFE3 DUP8 DUP3 DUP9 ADD PUSH2 0xE3A JUMP JUMPDEST SWAP4 POP POP PUSH1 0x40 PUSH2 0xFF4 DUP8 DUP3 DUP9 ADD PUSH2 0xE54 JUMP JUMPDEST SWAP3 POP POP PUSH2 0x140 DUP6 ADD CALLDATALOAD PUSH8 0xFFFFFFFFFFFFFFFF DUP2 GT ISZERO PUSH2 0x1016 JUMPI PUSH2 0x1015 PUSH2 0xA84 JUMP JUMPDEST JUMPDEST PUSH2 0x1022 DUP8 DUP3 DUP9 ADD PUSH2 0xF7B JUMP JUMPDEST SWAP2 POP POP SWAP3 SWAP6 SWAP2 SWAP5 POP SWAP3 POP JUMP JUMPDEST PUSH1 0x0 PUSH1 0x20 DUP3 ADD SWAP1 POP PUSH2 0x1043 PUSH1 0x0 DUP4 ADD DUP5 PUSH2 0xAEC JUMP JUMPDEST SWAP3 SWAP2 POP POP JUMP JUMPDEST PUSH2 0x1052 DUP2 PUSH2 0xC0A JUMP JUMPDEST DUP2 EQ PUSH2 0x105D JUMPI PUSH1 0x0 DUP1 REVERT JUMPDEST POP JUMP JUMPDEST PUSH1 0x0 DUP2 CALLDATALOAD SWAP1 POP PUSH2 0x106F DUP2 PUSH2 0x1049 JUMP JUMPDEST SWAP3 SWAP2 POP POP JUMP JUMPDEST PUSH1 0x0 DUP1 REVERT JUMPDEST PUSH1 0x0 DUP1 REVERT JUMPDEST PUSH1 0x0 DUP1 DUP4 PUSH1 0x1F DUP5 ADD SLT PUSH2 0x1095 JUMPI PUSH2 0x1094 PUSH2 0xE74 JUMP JUMPDEST JUMPDEST DUP3 CALLDATALOAD SWAP1 POP PUSH8 0xFFFFFFFFFFFFFFFF DUP2 GT ISZERO PUSH2 0x10B2 JUMPI PUSH2 0x10B1 PUSH2 0x1075 JUMP JUMPDEST JUMPDEST PUSH1 0x20 DUP4 ADD SWAP2 POP DUP4 PUSH1 0x1 DUP3 MUL DUP4 ADD GT ISZERO PUSH2 0x10CE JUMPI PUSH2 0x10CD PUSH2 0x107A JUMP JUMPDEST JUMPDEST SWAP3 POP SWAP3 SWAP1 POP JUMP JUMPDEST PUSH1 0x0 DUP1 PUSH1 0x0 DUP1 PUSH1 0x60 DUP6 DUP8 SUB SLT ISZERO PUSH2 0x10EF JUMPI PUSH2 0x10EE PUSH2 0xA7F JUMP JUMPDEST JUMPDEST PUSH1 0x0 PUSH2 0x10FD DUP8 DUP3 DUP9 ADD PUSH2 0xAAA JUMP JUMPDEST SWAP5 POP POP PUSH1 0x20 PUSH2 0x110E DUP8 DUP3 DUP9 ADD PUSH2 0x1060 JUMP JUMPDEST SWAP4 POP POP PUSH1 0x40 DUP6 ADD CALLDATALOAD PUSH8 0xFFFFFFFFFFFFFFFF DUP2 GT ISZERO PUSH2 0x112F JUMPI PUSH2 0x112E PUSH2 0xA84 JUMP JUMPDEST JUMPDEST PUSH2 0x113B DUP8 DUP3 DUP9 ADD PUSH2 0x107F JUMP JUMPDEST SWAP3 POP SWAP3 POP POP SWAP3 SWAP6 SWAP2 SWAP5 POP SWAP3 POP JUMP JUMPDEST PUSH1 0x0 PUSH1 0x20 DUP3 ADD SWAP1 POP PUSH2 0x115E PUSH1 0x0 DUP4 ADD DUP5 PUSH2 0xD67 JUMP JUMPDEST SWAP3 SWAP2 POP POP JUMP JUMPDEST PUSH32 0x4E487B7100000000000000000000000000000000000000000000000000000000 PUSH1 0x0 MSTORE PUSH1 0x22 PUSH1 0x4 MSTORE PUSH1 0x24 PUSH1 0x0 REVERT JUMPDEST PUSH1 0x0 PUSH1 0x2 DUP3 DIV SWAP1 POP PUSH1 0x1 DUP3 AND DUP1 PUSH2 0x11AB JUMPI PUSH1 0x7F DUP3 AND SWAP2 POP JUMPDEST PUSH1 0x20 DUP3 LT DUP2 SUB PUSH2 0x11BE JUMPI PUSH2 0x11BD PUSH2 0x1164 JUMP JUMPDEST JUMPDEST POP SWAP2 SWAP1 POP JUMP JUMPDEST PUSH32 0x4E487B7100000000000000000000000000000000000000000000000000000000 PUSH1 0x0 MSTORE PUSH1 0x11 PUSH1 0x4 MSTORE PUSH1 0x24 PUSH1 0x0 REVERT JUMPDEST PUSH1 0x0 PUSH2 0x11FE DUP3 PUSH2 0xA89 JUMP JUMPDEST SWAP2 POP PUSH32 0xFFFFFFFFFFFFFFFFFFFFFFFFFFFFFFFFFFFFFFFFFFFFFFFFFFFFFFFFFFFFFFFF DUP3 SUB PUSH2 0x1230 JUMPI PUSH2 0x122F PUSH2 0x11C4 JUMP JUMPDEST JUMPDEST PUSH1 0x1 DUP3 ADD SWAP1 POP SWAP2 SWAP1 POP JUMP JUMPDEST PUSH1 0x0 DUP1 REVERT JUMPDEST PUSH2 0x1249 DUP2 PUSH2 0xBCC JUMP JUMPDEST DUP2 EQ PUSH2 0x1254 JUMPI PUSH1 0x0 DUP1 REVERT JUMPDEST POP JUMP JUMPDEST PUSH1 0x0 DUP2 CALLDATALOAD SWAP1 POP PUSH2 0x1266 DUP2 PUSH2 0x1240 JUMP JUMPDEST SWAP3 SWAP2 POP POP JUMP JUMPDEST PUSH2 0x1275 DUP2 PUSH2 0xBE7 JUMP JUMPDEST DUP2 EQ PUSH2 0x1280 JUMPI PUSH1 0x0 DUP1 REVERT JUMPDEST POP JUMP JUMPDEST PUSH1 0x0 DUP2 CALLDATALOAD SWAP1 POP PUSH2 0x1292 DUP2 PUSH2 0x126C JUMP JUMPDEST SWAP3 SWAP2 POP POP JUMP JUMPDEST PUSH1 0x0 PUSH2 0x100 DUP3 DUP5 SUB SLT ISZERO PUSH2 0x12AF JUMPI PUSH2 0x12AE PUSH2 0x123B JUMP JUMPDEST JUMPDEST PUSH2 0x12BA PUSH2 0x100 PUSH2 0xEDE JUMP JUMPDEST SWAP1 POP PUSH1 0x0 PUSH2 0x12CA DUP5 DUP3 DUP6 ADD PUSH2 0x1257 JUMP JUMPDEST PUSH1 0x0 DUP4 ADD MSTORE POP PUSH1 0x20 PUSH2 0x12DE DUP5 DUP3 DUP6 ADD PUSH2 0x1257 JUMP JUMPDEST PUSH1 0x20 DUP4 ADD MSTORE POP PUSH1 0x40 PUSH2 0x12F2 DUP5 DUP3 DUP6 ADD PUSH2 0x1257 JUMP JUMPDEST PUSH1 0x40 DUP4 ADD MSTORE POP PUSH1 0x60 PUSH2 0x1306 DUP5 DUP3 DUP6 ADD PUSH2 0x1283 JUMP JUMPDEST PUSH1 0x60 DUP4 ADD MSTORE POP PUSH1 0x80 PUSH2 0x131A DUP5 DUP3 DUP6 ADD PUSH2 0x1060 JUMP JUMPDEST PUSH1 0x80 DUP4 ADD MSTORE POP PUSH1 0xA0 PUSH2 0x132E DUP5 DUP3 DUP6 ADD PUSH2 0xAAA JUMP JUMPDEST PUSH1 0xA0 DUP4 ADD MSTORE POP PUSH1 0xC0 PUSH2 0x1342 DUP5 DUP3 DUP6 ADD PUSH2 0x1257 JUMP JUMPDEST PUSH1 0xC0 DUP4 ADD MSTORE POP PUSH1 0xE0 PUSH2 0x1356 DUP5 DUP3 DUP6 ADD PUSH2 0x1257 JUMP JUMPDEST PUSH1 0xE0 DUP4 ADD MSTORE POP SWAP3 SWAP2 POP POP JUMP JUMPDEST PUSH1 0x0 PUSH2 0x100 DUP3 DUP5 SUB SLT ISZERO PUSH2 0x1379 JUMPI PUSH2 0x1378 PUSH2 0xA7F JUMP JUMPDEST JUMPDEST PUSH1 0x0 PUSH2 0x1387 DUP5 DUP3 DUP6 ADD PUSH2 0x1298 JUMP JUMPDEST SWAP2 POP POP SWAP3 SWAP2 POP POP JUMP JUMPDEST PUSH1 0x0 DUP2 SWAP1 POP DUP2 PUSH1 0x0 MSTORE PUSH1 0x20 PUSH1 0x0 KECCAK256 SWAP1 POP SWAP2 SWAP1 POP JUMP JUMPDEST PUSH1 0x0 PUSH1 0x20 PUSH1 0x1F DUP4 ADD DIV SWAP1 POP SWAP2 SWAP1 POP JUMP JUMPDEST PUSH1 0x0 DUP3 DUP3 SHL SWAP1 POP SWAP3 SWAP2 POP POP JUMP JUMPDEST PUSH1 0x0 PUSH1 0x8 DUP4 MUL PUSH2 0x13F2 PUSH32 0xFFFFFFFFFFFFFFFFFFFFFFFFFFFFFFFFFFFFFFFFFFFFFFFFFFFFFFFFFFFFFFFF DUP3 PUSH2 0x13B5 JUMP JUMPDEST PUSH2 0x13FC DUP7 DUP4 PUSH2 0x13B5 JUMP JUMPDEST SWAP6 POP DUP1 NOT DUP5 AND SWAP4 POP DUP1 DUP7 AND DUP5 OR SWAP3 POP POP POP SWAP4 SWAP3 POP POP POP JUMP JUMPDEST PUSH1 0x0 DUP2 SWAP1 POP SWAP2 SWAP1 POP JUMP JUMPDEST PUSH1 0x0 PUSH2 0x1439 PUSH2 0x1434 PUSH2 0x142F DUP5 PUSH2 0xA89 JUMP JUMPDEST PUSH2 0x1414 JUMP JUMPDEST PUSH2 0xA89 JUMP JUMPDEST SWAP1 POP SWAP2 SWAP1 POP JUMP JUMPDEST PUSH1 0x0 DUP2 SWAP1 POP SWAP2 SWAP1 POP JUMP JUMPDEST PUSH2 0x1453 DUP4 PUSH2 0x141E JUMP JUMPDEST PUSH2 0x1467 PUSH2 0x145F DUP3 PUSH2 0x1440 JUMP JUMPDEST DUP5 DUP5 SLOAD PUSH2 0x13C2 JUMP JUMPDEST DUP3 SSTORE POP POP POP POP JUMP JUMPDEST PUSH1 0x0 SWAP1 JUMP JUMPDEST PUSH2 0x147C PUSH2 0x146F JUMP JUMPDEST PUSH2 0x1487 DUP2 DUP5 DUP5 PUSH2 0x144A JUMP JUMPDEST POP POP POP JUMP JUMPDEST JUMPDEST DUP2 DUP2 LT ISZERO PUSH2 0x14AB JUMPI PUSH2 0x14A0 PUSH1 0x0 DUP3 PUSH2 0x1474 JUMP JUMPDEST PUSH1 0x1 DUP2 ADD SWAP1 POP PUSH2 0x148D JUMP JUMPDEST POP POP JUMP JUMPDEST PUSH1 0x1F DUP3 GT ISZERO PUSH2 0x14F0 JUMPI PUSH2 0x14C1 DUP2 PUSH2 0x1390 JUMP JUMPDEST PUSH2 0x14CA DUP5 PUSH2 0x13A5 JUMP JUMPDEST DUP2 ADD PUSH1 0x20 DUP6 LT ISZERO PUSH2 0x14D9 JUMPI DUP2 SWAP1 POP JUMPDEST PUSH2 0x14ED PUSH2 0x14E5 DUP6 PUSH2 0x13A5 JUMP JUMPDEST DUP4 ADD DUP3 PUSH2 0x148C JUMP JUMPDEST POP POP JUMPDEST POP POP POP JUMP JUMPDEST PUSH1 0x0 DUP3 DUP3 SHR SWAP1 POP SWAP3 SWAP2 POP POP JUMP JUMPDEST PUSH1 0x0 PUSH2 0x1513 PUSH1 0x0 NOT DUP5 PUSH1 0x8 MUL PUSH2 0x14F5 JUMP JUMPDEST NOT DUP1 DUP4 AND SWAP2 POP POP SWAP3 SWAP2 POP POP JUMP JUMPDEST PUSH1 0x0 PUSH2 0x152C DUP4 DUP4 PUSH2 0x1502 JUMP JUMPDEST SWAP2 POP DUP3 PUSH1 0x2 MUL DUP3 OR SWAP1 POP SWAP3 SWAP2 POP POP JUMP JUMPDEST PUSH2 0x1545 DUP3 PUSH2 0xCD7 JUMP JUMPDEST PUSH8 0xFFFFFFFFFFFFFFFF DUP2 GT ISZERO PUSH2 0x155E JUMPI PUSH2 0x155D PUSH2 0xE7E JUMP JUMPDEST JUMPDEST PUSH2 0x1568 DUP3 SLOAD PUSH2 0x1193 JUMP JUMPDEST PUSH2 0x1573 DUP3 DUP3 DUP6 PUSH2 0x14AF JUMP JUMPDEST PUSH1 0x0 PUSH1 0x20 SWAP1 POP PUSH1 0x1F DUP4 GT PUSH1 0x1 DUP2 EQ PUSH2 0x15A6 JUMPI PUSH1 0x0 DUP5 ISZERO PUSH2 0x1594 JUMPI DUP3 DUP8 ADD MLOAD SWAP1 POP JUMPDEST PUSH2 0x159E DUP6 DUP3 PUSH2 0x1520 JUMP JUMPDEST DUP7 SSTORE POP PUSH2 0x1606 JUMP JUMPDEST PUSH1 0x1F NOT DUP5 AND PUSH2 0x15B4 DUP7 PUSH2 0x1390 JUMP JUMPDEST PUSH1 0x0 JUMPDEST DUP3 DUP2 LT ISZERO PUSH2 0x15DC JUMPI DUP5 DUP10 ADD MLOAD DUP3 SSTORE PUSH1 0x1 DUP3 ADD SWAP2 POP PUSH1 0x20 DUP6 ADD SWAP5 POP PUSH1 0x20 DUP2 ADD SWAP1 POP PUSH2 0x15B7 JUMP JUMPDEST DUP7 DUP4 LT ISZERO PUSH2 0x15F9 JUMPI DUP5 DUP10 ADD MLOAD PUSH2 0x15F5 PUSH1 0x1F DUP10 AND DUP3 PUSH2 0x1502 JUMP JUMPDEST DUP4 SSTORE POP JUMPDEST PUSH1 0x1 PUSH1 0x2 DUP9 MUL ADD DUP9 SSTORE POP POP POP JUMPDEST POP POP POP POP POP POP JUMP JUMPDEST PUSH1 0x0 PUSH1 0x60 DUP3 ADD SWAP1 POP PUSH2 0x1623 PUSH1 0x0 DUP4 ADD DUP7 PUSH2 0xBA4 JUMP JUMPDEST PUSH2 0x1630 PUSH1 0x20 DUP4 ADD DUP6 PUSH2 0xBBD JUMP JUMPDEST DUP2 DUP2 SUB PUSH1 0x40 DUP4 ADD MSTORE PUSH2 0x1642 DUP2 DUP5 PUSH2 0xD2E JUMP JUMPDEST SWAP1 POP SWAP5 SWAP4 POP POP POP POP JUMP JUMPDEST PUSH32 0x52444F20646F6573206E6F742065786973740000000000000000000000000000 PUSH1 0x0 DUP3 ADD MSTORE POP JUMP JUMPDEST PUSH1 0x0 PUSH2 0x1682 PUSH1 0x12 DUP4 PUSH2 0xCE2 JUMP JUMPDEST SWAP2 POP PUSH2 0x168D DUP3 PUSH2 0x164C JUMP JUMPDEST PUSH1 0x20 DUP3 ADD SWAP1 POP SWAP2 SWAP1 POP JUMP JUMPDEST PUSH1 0x0 PUSH1 0x20 DUP3 ADD SWAP1 POP DUP2 DUP2 SUB PUSH1 0x0 DUP4 ADD MSTORE PUSH2 0x16B1 DUP2 PUSH2 0x1675 JUMP JUMPDEST SWAP1 POP SWAP2 SWAP1 POP JUMP JUMPDEST PUSH2 0x16C1 DUP2 PUSH2 0xC0A JUMP JUMPDEST DUP3 MSTORE POP POP JUMP JUMPDEST PUSH32 0x52444F206973207065726D616E656E746C79206C6F636B656400000000000000 PUSH1 0x0 DUP3 ADD MSTORE POP JUMP JUMPDEST PUSH1 0x0 PUSH2 0x16FD PUSH1 0x19 DUP4 PUSH2 0xCE2 JUMP JUMPDEST SWAP2 POP PUSH2 0x1708 DUP3 PUSH2 0x16C7 JUMP JUMPDEST PUSH1 0x20 DUP3 ADD SWAP1 POP SWAP2 SWAP1 POP JUMP JUMPDEST PUSH1 0x0 PUSH1 0x60 DUP3 ADD SWAP1 POP PUSH2 0x1728 PUSH1 0x0 DUP4 ADD DUP6 PUSH2 0x16B8 JUMP JUMPDEST PUSH2 0x1735 PUSH1 0x20 DUP4 ADD DUP5 PUSH2 0xBBD JUMP JUMPDEST DUP2 DUP2 SUB PUSH1 0x40 DUP4 ADD MSTORE PUSH2 0x1746 DUP2 PUSH2 0x16F0 JUMP JUMPDEST SWAP1 POP SWAP4 SWAP3 POP POP POP JUMP JUMPDEST PUSH32 0x52444F2068617320657870697265640000000000000000000000000000000000 PUSH1 0x0 DUP3 ADD MSTORE POP JUMP JUMPDEST PUSH1 0x0 PUSH2 0x1785 PUSH1 0xF DUP4 PUSH2 0xCE2 JUMP JUMPDEST SWAP2 POP PUSH2 0x1790 DUP3 PUSH2 0x174F JUMP JUMPDEST PUSH1 0x20 DUP3 ADD SWAP1 POP SWAP2 SWAP1 POP JUMP JUMPDEST PUSH1 0x0 PUSH1 0x60 DUP3 ADD SWAP1 POP PUSH2 0x17B0 PUSH1 0x0 DUP4 ADD DUP6 PUSH2 0x16B8 JUMP JUMPDEST PUSH2 0x17BD PUSH1 0x20 DUP4 ADD DUP5 PUSH2 0xBBD JUMP JUMPDEST DUP2 DUP2 SUB PUSH1 0x40 DUP4 ADD MSTORE PUSH2 0x17CE DUP2 PUSH2 0x1778 JUMP JUMPDEST SWAP1 POP SWAP4 SWAP3 POP POP POP JUMP JUMPDEST PUSH1 0x0 DUP2 PUSH1 0xF8 SHL SWAP1 POP SWAP2 SWAP1 POP JUMP JUMPDEST PUSH1 0x0 PUSH2 0x17EF DUP3 PUSH2 0x17D7 JUMP JUMPDEST SWAP1 POP SWAP2 SWAP1 POP JUMP JUMPDEST PUSH2 0x1807 PUSH2 0x1802 DUP3 PUSH2 0xC0A JUMP JUMPDEST PUSH2 0x17E4 JUMP JUMPDEST DUP3 MSTORE POP POP JUMP JUMPDEST PUSH1 0x0 DUP2 SWAP1 POP SWAP3 SWAP2 POP POP JUMP JUMPDEST PUSH1 0x0 PUSH2 0x1824 DUP4 DUP6 PUSH2 0x180D JUMP JUMPDEST SWAP4 POP PUSH2 0x1831 DUP4 DUP6 DUP5 PUSH2 0xF2A JUMP JUMPDEST DUP3 DUP5 ADD SWAP1 POP SWAP4 SWAP3 POP POP POP JUMP JUMPDEST PUSH1 0x0 PUSH2 0x1849 DUP3 DUP7 PUSH2 0x17F6 JUMP JUMPDEST PUSH1 0x1 DUP3 ADD SWAP2 POP PUSH2 0x185A DUP3 DUP5 DUP7 PUSH2 0x1818 JUMP JUMPDEST SWAP2 POP DUP2 SWAP1 POP SWAP5 SWAP4 POP POP POP POP JUMP JUMPDEST PUSH1 0x0 DUP2 SWAP1 POP SWAP3 SWAP2 POP POP JUMP JUMPDEST PUSH1 0x0 PUSH2 0x187D DUP3 PUSH2 0xCD7 JUMP JUMPDEST PUSH2 0x1887 DUP2 DUP6 PUSH2 0x1867 JUMP JUMPDEST SWAP4 POP PUSH2 0x1897 DUP2 DUP6 PUSH1 0x20 DUP7 ADD PUSH2 0xCF3 JUMP JUMPDEST DUP1 DUP5 ADD SWAP2 POP POP SWAP3 SWAP2 POP POP JUMP JUMPDEST PUSH32 0x20284F626A656374204C6F636B65642900000000000000000000000000000000 PUSH1 0x0 DUP3 ADD MSTORE POP JUMP JUMPDEST PUSH1 0x0 PUSH2 0x18D9 PUSH1 0x10 DUP4 PUSH2 0x1867 JUMP JUMPDEST SWAP2 POP PUSH2 0x18E4 DUP3 PUSH2 0x18A3 JUMP JUMPDEST PUSH1 0x10 DUP3 ADD SWAP1 POP SWAP2 SWAP1 POP JUMP JUMPDEST PUSH1 0x0 PUSH2 0x18FB DUP3 DUP5 PUSH2 0x1872 JUMP JUMPDEST SWAP2 POP PUSH2 0x1906 DUP3 PUSH2 0x18CC JUMP JUMPDEST SWAP2 POP DUP2 SWAP1 POP SWAP3 SWAP2 POP POP JUMP JUMPDEST PUSH1 0x0 PUSH1 0x60 DUP3 ADD SWAP1 POP PUSH2 0x1926 PUSH1 0x0 DUP4 ADD DUP7 PUSH2 0x16B8 JUMP JUMPDEST PUSH2 0x1933 PUSH1 0x20 DUP4 ADD DUP6 PUSH2 0xBBD JUMP JUMPDEST DUP2 DUP2 SUB PUSH1 0x40 DUP4 ADD MSTORE PUSH2 0x1945 DUP2 DUP5 PUSH2 0xD2E JUMP JUMPDEST SWAP1 POP SWAP5 SWAP4 POP POP POP POP JUMP JUMPDEST PUSH1 0x0 PUSH2 0x195A DUP3 PUSH2 0xA89 JUMP JUMPDEST SWAP2 POP PUSH1 0x0 DUP3 SUB PUSH2 0x196D JUMPI PUSH2 0x196C PUSH2 0x11C4 JUMP JUMPDEST JUMPDEST PUSH1 0x1 DUP3 SUB SWAP1 POP SWAP2 SWAP1 POP JUMP JUMPDEST PUSH1 0x0 PUSH1 0x40 DUP3 ADD SWAP1 POP PUSH2 0x198D PUSH1 0x0 DUP4 ADD DUP6 PUSH2 0x16B8 JUMP JUMPDEST PUSH2 0x199A PUSH1 0x20 DUP4 ADD DUP5 PUSH2 0xBBD JUMP JUMPDEST SWAP4 SWAP3 POP POP POP JUMP INVALID LOG2 PUSH5 0x6970667358 0x22 SLT KECCAK256 PUSH31 0xF11F575DA66A306E30A58630D78F51BC53FF63A5D7BD55546550733032D183 PUSH5 0x736F6C6343 STOP ADDMOD EQ STOP CALLER "},"methodIdentifiers":{"createRDO(bytes32,uint8,(bool,bool,bool,uint64,uint8,uint256,bool,bool),string)":"f09deace","rdos(uint256)":"a249ced8","requestAction(uint256,uint8,bytes)":"f1334594"}}}}}