{
  "_format": "hh-sol-artifact-1",
  "contractName": "RDORegistry",
  "sourceName": "contracts/RDORegistry.sol",
  "abi": [
    {
      "inputs": [],
      "stateMutability": "nonpayable",
      "type": "constructor"
    },
    {
      "anonymous": false,
      "inputs": [
        {
          "indexed": true,
          "internalType": "uint256",
          "name": "rdoId",
          "type": "uint256"
        },
        {
          "indexed": true,
          "internalType": "address",
          "name": "actor",
          "type": "address"
        },
        {
          "indexed": false,
          "internalType": "bytes32",
          "name": "actionHash",
          "type": "bytes32"
        }
      ],
      "name": "ActionAllowed",
      "type": "event"
    },
    {
      "anonymous": false,
      "inputs": [
        {
          "indexed": true,
          "internalType": "uint256",
          "name": "rdoId",
          "type": "uint256"
        },
        {
          "indexed": true,
          "internalType": "address",
          "name": "actor",
          "type": "address"
        },
        {
          "indexed": false,
          "internalType": "bytes32",
          "name": "actionHash",
          "type": "bytes32"
        },
        {
          "indexed": false,
          "internalType": "string",
          "name": "reason",
          "type": "string"
        }
      ],
      "name": "ActionRefused",
      "type": "event"
    },
    {
      "anonymous": false,
      "inputs": [
        {
          "indexed": true,
          "internalType": "uint256",
          "name": "rdoId",
          "type": "uint256"
        },
        {
          "indexed": true,
          "internalType": "address",
          "name": "creator",
          "type": "address"
        },
        {
          "indexed": false,
          "internalType": "bytes32",
          "name": "rulesHash",
          "type": "bytes32"
        },
        {
          "indexed": false,
          "internalType": "string",
          "name": "metadataCID",
          "type": "string"
        }
      ],
      "name": "RDOCreated",
      "type": "event"
    },
    {
      "inputs": [
        {
          "internalType": "bytes32",
          "name": "_rulesHash",
          "type": "bytes32"
        },
        {
          "internalType": "string",
          "name": "_metadataCID",
          "type": "string"
        }
      ],
      "name": "createRDO",
      "outputs": [
        {
          "internalType": "uint256",
          "name": "",
          "type": "uint256"
        }
      ],
      "stateMutability": "nonpayable",
      "type": "function"
    },
    {
      "inputs": [
        {
          "internalType": "uint256",
          "name": "",
          "type": "uint256"
        }
      ],
      "name": "rdos",
      "outputs": [
        {
          "internalType": "uint256",
          "name": "id",
          "type": "uint256"
        },
        {
          "internalType": "address",
          "name": "creator",
          "type": "address"
        },
        {
          "internalType": "bytes32",
          "name": "rulesHash",
          "type": "bytes32"
        },
        {
          "internalType": "string",
          "name": "metadataCID",
          "type": "string"
        },
        {
          "internalType": "uint256",
          "name": "createdAt",
          "type": "uint256"
        }
      ],
      "stateMutability": "view",
      "type": "function"
    },
    {
      "inputs": [
        {
          "internalType": "uint256",
          "name": "_rdoId",
          "type": "uint256"
        },
        {
          "internalType": "string",
          "name": "_actionType",
          "type": "string"
        },
        {
          "internalType": "bytes",
          "name": "_contextData",
          "type": "bytes"
        },
        {
          "internalType": "uint256",
          "name": "_expiry",
          "type": "uint256"
        },
        {
          "internalType": "bool",
          "name": "_allowForward",
          "type": "bool"
        }
      ],
      "name": "requestAction",
      "outputs": [],
      "stateMutability": "nonpayable",
      "type": "function"
    }
  ],
  "bytecode": "0x608060405234801561001057600080fd5b50611213806100206000396000f3fe608060405234801561001057600080fd5b50600436106100415760003560e01c80633d46a22f14610046578063a249ced814610062578063e05c0f8814610096575b600080fd5b610060600480360381019061005b919061093e565b6100c6565b005b61007c600480360381019061007791906109f1565b610499565b60405161008d959493929190610b06565b60405180910390f35b6100b060048036038101906100ab9190610b8c565b610577565b6040516100bd9190610be8565b60405180910390f35b6000600160008781526020019081526020016000206040518060a0016040529081600082015481526020016001820160009054906101000a900473ffffffffffffffffffffffffffffffffffffffff1673ffffffffffffffffffffffffffffffffffffffff1673ffffffffffffffffffffffffffffffffffffffff1681526020016002820154815260200160038201805461016090610c32565b80601f016020809104026020016040519081016040528092919081815260200182805461018c90610c32565b80156101d95780601f106101ae576101008083540402835291602001916101d9565b820191906000526020600020905b8154815290600101906020018083116101bc57829003601f168201915b5050505050815260200160048201548152505090506000816000015103610235576040517f08c379a000000000000000000000000000000000000000000000000000000000815260040161022c90610caf565b60405180910390fd5b6000838360405160200161024a929190610d38565b604051602081830303815290604052805190602001209050816040015181146102a8576040517f08c379a000000000000000000000000000000000000000000000000000000000815260040161029f90610dd6565b60405180910390fd5b600086866040516020016102bd929190610e79565b6040516020818303038152906040528051906020012090506000806040518060200160405280600081525090506000871180156102f957508642115b1561033b57600191506040518060400160405280600f81526020017f52444f206861732065787069726564000000000000000000000000000000000081525090505b8115801561038b57506040518060400160405280600781526020017f464f525741524400000000000000000000000000000000000000000000000000815250805190602001208980519060200120145b156103d357856103d257600191506040518060400160405280601981526020017f466f7277617264696e67206973206e6f7420616c6c6f7765640000000000000081525090505b5b8115610436576103e16106cd565b73ffffffffffffffffffffffffffffffffffffffff168a7f8ec5eb50785a4658f0b909f01dda3fc4ddb7c7329364105ee596b9371d9159008584604051610429929190610e9d565b60405180910390a361048d565b61043e6106cd565b73ffffffffffffffffffffffffffffffffffffffff168a7fe3470f6e43580e8826470e283e4dc4e2445a432453c37e92b0ab6fd959ed99bd856040516104849190610ecd565b60405180910390a35b50505050505050505050565b60016020528060005260406000206000915090508060000154908060010160009054906101000a900473ffffffffffffffffffffffffffffffffffffffff16908060020154908060030180546104ee90610c32565b80601f016020809104026020016040519081016040528092919081815260200182805461051a90610c32565b80156105675780601f1061053c57610100808354040283529160200191610567565b820191906000526020600020905b81548152906001019060200180831161054a57829003601f168201915b5050505050908060040154905085565b600080600081548092919061058b90610f17565b91905055506000805490506040518060a001604052808281526020016105af6106cd565b73ffffffffffffffffffffffffffffffffffffffff16815260200185815260200184815260200142815250600160008381526020019081526020016000206000820151816000015560208201518160010160006101000a81548173ffffffffffffffffffffffffffffffffffffffff021916908373ffffffffffffffffffffffffffffffffffffffff16021790555060408201518160020155606082015181600301908161065d919061110b565b50608082015181600401559050506106736106cd565b73ffffffffffffffffffffffffffffffffffffffff16817f85ddea1cd79d643ed452f135c8d3e1c69b52f20f97fd1185cd23f0474cc981d786866040516106bb929190610e9d565b60405180910390a38091505092915050565b600033905090565b6000604051905090565b600080fd5b600080fd5b6000819050919050565b6106fc816106e9565b811461070757600080fd5b50565b600081359050610719816106f3565b92915050565b600080fd5b600080fd5b6000601f19601f8301169050919050565b7f4e487b7100000000000000000000000000000000000000000000000000000000600052604160045260246000fd5b61077282610729565b810181811067ffffffffffffffff821117156107915761079061073a565b5b80604052505050565b60006107a46106d5565b90506107b08282610769565b919050565b600067ffffffffffffffff8211156107d0576107cf61073a565b5b6107d982610729565b9050602081019050919050565b82818337600083830152505050565b6000610808610803846107b5565b61079a565b90508281526020810184848401111561082457610823610724565b5b61082f8482856107e6565b509392505050565b600082601f83011261084c5761084b61071f565b5b813561085c8482602086016107f5565b91505092915050565b600067ffffffffffffffff8211156108805761087f61073a565b5b61088982610729565b9050602081019050919050565b60006108a96108a484610865565b61079a565b9050828152602081018484840111156108c5576108c4610724565b5b6108d08482856107e6565b509392505050565b600082601f8301126108ed576108ec61071f565b5b81356108fd848260208601610896565b91505092915050565b60008115159050919050565b61091b81610906565b811461092657600080fd5b50565b60008135905061093881610912565b92915050565b600080600080600060a0868803121561095a576109596106df565b5b60006109688882890161070a565b955050602086013567ffffffffffffffff811115610989576109886106e4565b5b61099588828901610837565b945050604086013567ffffffffffffffff8111156109b6576109b56106e4565b5b6109c2888289016108d8565b93505060606109d38882890161070a565b92505060806109e488828901610929565b9150509295509295909350565b600060208284031215610a0757610a066106df565b5b6000610a158482850161070a565b91505092915050565b610a27816106e9565b82525050565b600073ffffffffffffffffffffffffffffffffffffffff82169050919050565b6000610a5882610a2d565b9050919050565b610a6881610a4d565b82525050565b6000819050919050565b610a8181610a6e565b82525050565b600081519050919050565b600082825260208201905092915050565b60005b83811015610ac1578082015181840152602081019050610aa6565b60008484015250505050565b6000610ad882610a87565b610ae28185610a92565b9350610af2818560208601610aa3565b610afb81610729565b840191505092915050565b600060a082019050610b1b6000830188610a1e565b610b286020830187610a5f565b610b356040830186610a78565b8181036060830152610b478185610acd565b9050610b566080830184610a1e565b9695505050505050565b610b6981610a6e565b8114610b7457600080fd5b50565b600081359050610b8681610b60565b92915050565b60008060408385031215610ba357610ba26106df565b5b6000610bb185828601610b77565b925050602083013567ffffffffffffffff811115610bd257610bd16106e4565b5b610bde85828601610837565b9150509250929050565b6000602082019050610bfd6000830184610a1e565b92915050565b7f4e487b7100000000000000000000000000000000000000000000000000000000600052602260045260246000fd5b60006002820490506001821680610c4a57607f821691505b602082108103610c5d57610c5c610c03565b5b50919050565b7f52444f20646f6573206e6f742065786973740000000000000000000000000000600082015250565b6000610c99601283610a92565b9150610ca482610c63565b602082019050919050565b60006020820190508181036000830152610cc881610c8c565b9050919050565b6000819050919050565b610cea610ce5826106e9565b610ccf565b82525050565b60008160f81b9050919050565b6000610d0882610cf0565b9050919050565b6000610d1a82610cfd565b9050919050565b610d32610d2d82610906565b610d0f565b82525050565b6000610d448285610cd9565b602082019150610d548284610d21565b6001820191508190509392505050565b7f50726f76696465642072756c657320646f206e6f74206d617463682073746f7260008201527f6564206861736800000000000000000000000000000000000000000000000000602082015250565b6000610dc0602783610a92565b9150610dcb82610d64565b604082019050919050565b60006020820190508181036000830152610def81610db3565b9050919050565b600081905092915050565b6000610e0c82610a87565b610e168185610df6565b9350610e26818560208601610aa3565b80840191505092915050565b600081519050919050565b600081905092915050565b6000610e5382610e32565b610e5d8185610e3d565b9350610e6d818560208601610aa3565b80840191505092915050565b6000610e858285610e01565b9150610e918284610e48565b91508190509392505050565b6000604082019050610eb26000830185610a78565b8181036020830152610ec48184610acd565b90509392505050565b6000602082019050610ee26000830184610a78565b92915050565b7f4e487b7100000000000000000000000000000000000000000000000000000000600052601160045260246000fd5b6000610f22826106e9565b91507fffffffffffffffffffffffffffffffffffffffffffffffffffffffffffffffff8203610f5457610f53610ee8565b5b600182019050919050565b60008190508160005260206000209050919050565b60006020601f8301049050919050565b600082821b905092915050565b600060088302610fc17fffffffffffffffffffffffffffffffffffffffffffffffffffffffffffffffff82610f84565b610fcb8683610f84565b95508019841693508086168417925050509392505050565b6000819050919050565b6000611008611003610ffe846106e9565b610fe3565b6106e9565b9050919050565b6000819050919050565b61102283610fed565b61103661102e8261100f565b848454610f91565b825550505050565b600090565b61104b61103e565b611056818484611019565b505050565b5b8181101561107a5761106f600082611043565b60018101905061105c565b5050565b601f8211156110bf5761109081610f5f565b61109984610f74565b810160208510156110a8578190505b6110bc6110b485610f74565b83018261105b565b50505b505050565b600082821c905092915050565b60006110e2600019846008026110c4565b1980831691505092915050565b60006110fb83836110d1565b9150826002028217905092915050565b61111482610a87565b67ffffffffffffffff81111561112d5761112c61073a565b5b6111378254610c32565b61114282828561107e565b600060209050601f8311600181146111755760008415611163578287015190505b61116d85826110ef565b8655506111d5565b601f19841661118386610f5f565b60005b828110156111ab57848901518255600182019150602085019450602081019050611186565b868310156111c857848901516111c4601f8916826110d1565b8355505b6001600288020188555050505b50505050505056fea26469706673582212204c68e50939a65e1d564dde232571d305076dbe50077be781508fe006373432a764736f6c63430008140033",
  "linkReferences": {},
  "deployedLinkReferences": {}
}