{
  "_format": "hh-sol-artifact-1",
  "contractName": "RDORegistry",
  "sourceName": "contracts/RDORegistry.sol",
  "abi": [
    {
      "inputs": [],
      "stateMutability": "nonpayable",
      "type": "constructor"
    },
    {
      "anonymous": false,
      "inputs": [
        {
          "indexed": true,
          "internalType": "uint256",
          "name": "rdoId",
          "type": "uint256"
        },
        {
          "indexed": true,
          "internalType": "address",
          "name": "actor",
          "type": "address"
        },
        {
          "indexed": false,
          "internalType": "uint8",
          "name": "actionType",
          "type": "uint8"
        },
        {
          "indexed": false,
          "internalType": "bytes32",
          "name": "actionHash",
          "type": "bytes32"
        }
      ],
      "name": "ActionAllowed",
      "type": "event"
    },
    {
      "anonymous": false,
      "inputs": [
        {
          "indexed": true,
          "internalType": "uint256",
          "name": "rdoId",
          "type": "uint256"
        },
        {
          "indexed": true,
          "internalType": "address",
          "name": "actor",
          "type": "address"
        },
        {
          "indexed": false,
          "internalType": "uint8",
          "name": "actionType",
          "type": "uint8"
        },
        {
          "indexed": false,
          "internalType": "bytes32",
          "name": "violatedRuleHash",
          "type": "bytes32"
        },
        {
          "indexed": false,
          "internalType": "string",
          "name": "reason",
          "type": "string"
        }
      ],
      "name": "ActionRefused",
      "type": "event"
    },
    {
      "anonymous": false,
      "inputs": [
        {
          "indexed": true,
          "internalType": "uint256",
          "name": "rdoId",
          "type": "uint256"
        },
        {
          "indexed": true,
          "internalType": "address",
          "name": "creator",
          "type": "address"
        },
        {
          "indexed": false,
          "internalType": "enum RDORegistry.RDOType",
          "name": "rdoType",
          "type": "uint8"
        },
        {
          "indexed": false,
          "internalType": "bytes32",
          "name": "rulesHash",
          "type": "bytes32"
        },
        {
          "indexed": false,
          "internalType": "string",
          "name": "metadataCID",
          "type": "string"
        }
      ],
      "name": "RDOCreated",
      "type": "event"
    },
    {
      "inputs": [
        {
          "internalType": "bytes32",
          "name": "_rulesHash",
          "type": "bytes32"
        },
        {
          "internalType": "enum RDORegistry.RDOType",
          "name": "_rdoType",
          "type": "uint8"
        },
        {
          "components": [
            {
              "internalType": "bool",
              "name": "forbidCopy",
              "type": "bool"
            },
            {
              "internalType": "bool",
              "name": "forbidForward",
              "type": "bool"
            },
            {
              "internalType": "bool",
              "name": "forbidExport",
              "type": "bool"
            },
            {
              "internalType": "uint64",
              "name": "expiry",
              "type": "uint64"
            },
            {
              "internalType": "uint8",
              "name": "accessType",
              "type": "uint8"
            },
            {
              "internalType": "uint256",
              "name": "maxUses",
              "type": "uint256"
            },
            {
              "internalType": "bool",
              "name": "lockOnViolation",
              "type": "bool"
            },
            {
              "internalType": "bool",
              "name": "requireIdentity",
              "type": "bool"
            }
          ],
          "internalType": "struct RDORegistry.Rules",
          "name": "_rulesCompact",
          "type": "tuple"
        },
        {
          "internalType": "string",
          "name": "_metadataCID",
          "type": "string"
        },
        {
          "internalType": "address[]",
          "name": "_whitelist",
          "type": "address[]"
        }
      ],
      "name": "createRDO",
      "outputs": [
        {
          "internalType": "uint256",
          "name": "",
          "type": "uint256"
        }
      ],
      "stateMutability": "nonpayable",
      "type": "function"
    },
    {
      "inputs": [
        {
          "internalType": "uint256",
          "name": "_rdoId",
          "type": "uint256"
        },
        {
          "internalType": "address",
          "name": "_user",
          "type": "address"
        }
      ],
      "name": "isWhitelisted",
      "outputs": [
        {
          "internalType": "bool",
          "name": "",
          "type": "bool"
        }
      ],
      "stateMutability": "view",
      "type": "function"
    },
    {
      "inputs": [
        {
          "internalType": "uint256",
          "name": "",
          "type": "uint256"
        }
      ],
      "name": "rdos",
      "outputs": [
        {
          "internalType": "uint256",
          "name": "id",
          "type": "uint256"
        },
        {
          "internalType": "address",
          "name": "creator",
          "type": "address"
        },
        {
          "internalType": "enum RDORegistry.RDOType",
          "name": "rdoType",
          "type": "uint8"
        },
        {
          "internalType": "bytes32",
          "name": "rulesHash",
          "type": "bytes32"
        },
        {
          "components": [
            {
              "internalType": "bool",
              "name": "forbidCopy",
              "type": "bool"
            },
            {
              "internalType": "bool",
              "name": "forbidForward",
              "type": "bool"
            },
            {
              "internalType": "bool",
              "name": "forbidExport",
              "type": "bool"
            },
            {
              "internalType": "uint64",
              "name": "expiry",
              "type": "uint64"
            },
            {
              "internalType": "uint8",
              "name": "accessType",
              "type": "uint8"
            },
            {
              "internalType": "uint256",
              "name": "maxUses",
              "type": "uint256"
            },
            {
              "internalType": "bool",
              "name": "lockOnViolation",
              "type": "bool"
            },
            {
              "internalType": "bool",
              "name": "requireIdentity",
              "type": "bool"
            }
          ],
          "internalType": "struct RDORegistry.Rules",
          "name": "rules",
          "type": "tuple"
        },
        {
          "internalType": "string",
          "name": "metadataCID",
          "type": "string"
        },
        {
          "internalType": "uint256",
          "name": "createdAt",
          "type": "uint256"
        },
        {
          "internalType": "bool",
          "name": "locked",
          "type": "bool"
        }
      ],
      "stateMutability": "view",
      "type": "function"
    },
    {
      "inputs": [
        {
          "internalType": "uint256",
          "name": "_rdoId",
          "type": "uint256"
        },
        {
          "internalType": "uint8",
          "name": "_actionType",
          "type": "uint8"
        },
        {
          "internalType": "bytes",
          "name": "_contextData",
          "type": "bytes"
        }
      ],
      "name": "requestAction",
      "outputs": [
        {
          "internalType": "bool",
          "name": "",
          "type": "bool"
        }
      ],
      "stateMutability": "nonpayable",
      "type": "function"
    }
  ],
  "bytecode": "0x608060405234801561001057600080fd5b50611d9c806100206000396000f3fe608060405234801561001057600080fd5b506004361061004c5760003560e01c80637d22c35c14610051578063a249ced814610081578063b85944f4146100b8578063f1334594146100e8575b600080fd5b61006b60048036038101906100669190610d63565b610118565b6040516100789190610dbe565b60405180910390f35b61009b60048036038101906100969190610dd9565b610180565b6040516100af989796959493929190611043565b60405180910390f35b6100d260048036038101906100cd91906112d6565b610375565b6040516100df919061138f565b60405180910390f35b61010260048036038101906100fd919061142c565b61072e565b60405161010f9190610dbe565b60405180910390f35b60006002600084815260200190815260200160002060008373ffffffffffffffffffffffffffffffffffffffff1673ffffffffffffffffffffffffffffffffffffffff16815260200190815260200160002060009054906101000a900460ff16905092915050565b60016020528060005260406000206000915090508060000154908060010160009054906101000a900473ffffffffffffffffffffffffffffffffffffffff16908060010160149054906101000a900460ff169080600201549080600301604051806101000160405290816000820160009054906101000a900460ff161515151581526020016000820160019054906101000a900460ff161515151581526020016000820160029054906101000a900460ff161515151581526020016000820160039054906101000a900467ffffffffffffffff1667ffffffffffffffff1667ffffffffffffffff16815260200160008201600b9054906101000a900460ff1660ff1660ff168152602001600182015481526020016002820160009054906101000a900460ff161515151581526020016002820160019054906101000a900460ff161515151581525050908060060180546102d9906114cf565b80601f0160208091040260200160405190810160405280929190818152602001828054610305906114cf565b80156103525780601f1061032757610100808354040283529160200191610352565b820191906000526020600020905b81548152906001019060200180831161033557829003601f168201915b5050505050908060070154908060080160009054906101000a900460ff16905088565b60008060008154809291906103899061152f565b91905055506000805490506040518061010001604052808281526020016103ae610cb3565b73ffffffffffffffffffffffffffffffffffffffff1681526020018860038111156103dc576103db610e24565b5b8152602001898152602001878036038101906103f8919061169e565b815260200186815260200142815260200160001515815250600160008381526020019081526020016000206000820151816000015560208201518160010160006101000a81548173ffffffffffffffffffffffffffffffffffffffff021916908373ffffffffffffffffffffffffffffffffffffffff16021790555060408201518160010160146101000a81548160ff0219169083600381111561049f5761049e610e24565b5b02179055506060820151816002015560808201518160030160008201518160000160006101000a81548160ff02191690831515021790555060208201518160000160016101000a81548160ff02191690831515021790555060408201518160000160026101000a81548160ff02191690831515021790555060608201518160000160036101000a81548167ffffffffffffffff021916908367ffffffffffffffff160217905550608082015181600001600b6101000a81548160ff021916908360ff16021790555060a0820151816001015560c08201518160020160006101000a81548160ff02191690831515021790555060e08201518160020160016101000a81548160ff021916908315150217905550505060a08201518160060190816105c89190611878565b5060c0820151816007015560e08201518160080160006101000a81548160ff021916908315150217905550905050600486608001602081019061060b919061194a565b60ff16036106c65760005b848490508110156106c457600160026000848152602001908152602001600020600087878581811061064b5761064a611977565b5b905060200201602081019061066091906119a6565b73ffffffffffffffffffffffffffffffffffffffff1673ffffffffffffffffffffffffffffffffffffffff16815260200190815260200160002060006101000a81548160ff02191690831515021790555080806106bc9061152f565b915050610616565b505b6106ce610cb3565b73ffffffffffffffffffffffffffffffffffffffff16817fe23504f119fed42d38072fa139960a68945b4f32e3cdb49e49b1eec43b6d2ab1898b89604051610718939291906119d3565b60405180910390a3809150509695505050505050565b600080600160008781526020019081526020016000209050600081600001540361078d576040517f08c379a000000000000000000000000000000000000000000000000000000000815260040161078490611a5d565b60405180910390fd5b8060080160009054906101000a900460ff161561080a576107ac610cb3565b73ffffffffffffffffffffffffffffffffffffffff16867f11778a34a618f771f2b7c45780ff639dd5b51abef43b89d11a5317f1db1d8d3e8784600201546040516107f8929190611ad8565b60405180910390a36000915050610cab565b60008160030160000160039054906101000a900467ffffffffffffffff1667ffffffffffffffff1611801561086357508060030160000160039054906101000a900467ffffffffffffffff1667ffffffffffffffff1642115b156108ce57610870610cb3565b73ffffffffffffffffffffffffffffffffffffffff16867f11778a34a618f771f2b7c45780ff639dd5b51abef43b89d11a5317f1db1d8d3e8784600201546040516108bc929190611b60565b60405180910390a36000915050610cab565b60008060405180602001604052806000815250905060018760ff1614801561090757508260030160000160019054906101000a900460ff165b1561094d57600191506040518060400160405280601481526020017f466f7277617264696e6720666f7262696464656e0000000000000000000000008152509050610a1f565b60028760ff1614801561097157508260030160000160009054906101000a900460ff165b156109b757600191506040518060400160405280601181526020017f436f7079696e6720666f7262696464656e0000000000000000000000000000008152509050610a1e565b60038760ff161480156109db57508260030160000160029054906101000a900460ff165b15610a1d57600191506040518060400160405280601081526020017f4578706f727420666f7262696464656e0000000000000000000000000000000081525090505b5b5b81158015610a445750600483600301600001600b9054906101000a900460ff1660ff16145b15610af057600260008981526020019081526020016000206000610a66610cb3565b73ffffffffffffffffffffffffffffffffffffffff1673ffffffffffffffffffffffffffffffffffffffff16815260200190815260200160002060009054906101000a900460ff16610aef57600191506040518060400160405280602081526020017f4163636573732064656e69656420284e6f7420696e2077686974656c6973742981525090505b5b6000878787604051602001610b0793929190611c02565b6040516020818303038152906040528051906020012090508215610bea578360030160020160009054906101000a900460ff1615610b7f5760018460080160006101000a81548160ff02191690831515021790555081604051602001610b6d9190611cb4565b60405160208183030381529060405291505b610b87610cb3565b73ffffffffffffffffffffffffffffffffffffffff16897f11778a34a618f771f2b7c45780ff639dd5b51abef43b89d11a5317f1db1d8d3e8a876002015486604051610bd593929190611cd6565b60405180910390a36000945050505050610cab565b600084600301600101541115610c4a576001846003016001015403610c2b57836003016001016000815480929190610c2190611d14565b9190505550610c49565b836003016001016000815480929190610c4390611d14565b91905055505b5b610c52610cb3565b73ffffffffffffffffffffffffffffffffffffffff16897f2bff1b4dcf0cd8735679a6c5784e427568023c6920de90a03ff6da076ccc961e8a84604051610c9a929190611d3d565b60405180910390a360019450505050505b949350505050565b600033905090565b6000604051905090565b600080fd5b600080fd5b6000819050919050565b610ce281610ccf565b8114610ced57600080fd5b50565b600081359050610cff81610cd9565b92915050565b600073ffffffffffffffffffffffffffffffffffffffff82169050919050565b6000610d3082610d05565b9050919050565b610d4081610d25565b8114610d4b57600080fd5b50565b600081359050610d5d81610d37565b92915050565b60008060408385031215610d7a57610d79610cc5565b5b6000610d8885828601610cf0565b9250506020610d9985828601610d4e565b9150509250929050565b60008115159050919050565b610db881610da3565b82525050565b6000602082019050610dd36000830184610daf565b92915050565b600060208284031215610def57610dee610cc5565b5b6000610dfd84828501610cf0565b91505092915050565b610e0f81610ccf565b82525050565b610e1e81610d25565b82525050565b7f4e487b7100000000000000000000000000000000000000000000000000000000600052602160045260246000fd5b60048110610e6457610e63610e24565b5b50565b6000819050610e7582610e53565b919050565b6000610e8582610e67565b9050919050565b610e9581610e7a565b82525050565b6000819050919050565b610eae81610e9b565b82525050565b610ebd81610da3565b82525050565b600067ffffffffffffffff82169050919050565b610ee081610ec3565b82525050565b600060ff82169050919050565b610efc81610ee6565b82525050565b610f0b81610ccf565b82525050565b61010082016000820151610f286000850182610eb4565b506020820151610f3b6020850182610eb4565b506040820151610f4e6040850182610eb4565b506060820151610f616060850182610ed7565b506080820151610f746080850182610ef3565b5060a0820151610f8760a0850182610f02565b5060c0820151610f9a60c0850182610eb4565b5060e0820151610fad60e0850182610eb4565b50505050565b600081519050919050565b600082825260208201905092915050565b60005b83811015610fed578082015181840152602081019050610fd2565b60008484015250505050565b6000601f19601f8301169050919050565b600061101582610fb3565b61101f8185610fbe565b935061102f818560208601610fcf565b61103881610ff9565b840191505092915050565b60006101e082019050611059600083018b610e06565b611066602083018a610e15565b6110736040830189610e8c565b6110806060830188610ea5565b61108d6080830187610f11565b8181036101808301526110a0818661100a565b90506110b06101a0830185610e06565b6110be6101c0830184610daf565b9998505050505050505050565b6110d481610e9b565b81146110df57600080fd5b50565b6000813590506110f1816110cb565b92915050565b6004811061110457600080fd5b50565b600081359050611116816110f7565b92915050565b600080fd5b600061010082840312156111385761113761111c565b5b81905092915050565b600080fd5b600080fd5b7f4e487b7100000000000000000000000000000000000000000000000000000000600052604160045260246000fd5b61118382610ff9565b810181811067ffffffffffffffff821117156111a2576111a161114b565b5b80604052505050565b60006111b5610cbb565b90506111c1828261117a565b919050565b600067ffffffffffffffff8211156111e1576111e061114b565b5b6111ea82610ff9565b9050602081019050919050565b82818337600083830152505050565b6000611219611214846111c6565b6111ab565b90508281526020810184848401111561123557611234611146565b5b6112408482856111f7565b509392505050565b600082601f83011261125d5761125c611141565b5b813561126d848260208601611206565b91505092915050565b600080fd5b600080fd5b60008083601f84011261129657611295611141565b5b8235905067ffffffffffffffff8111156112b3576112b2611276565b5b6020830191508360208202830111156112cf576112ce61127b565b5b9250929050565b60008060008060008061018087890312156112f4576112f3610cc5565b5b600061130289828a016110e2565b965050602061131389828a01611107565b955050604061132489828a01611121565b94505061014087013567ffffffffffffffff81111561134657611345610cca565b5b61135289828a01611248565b93505061016087013567ffffffffffffffff81111561137457611373610cca565b5b61138089828a01611280565b92509250509295509295509295565b60006020820190506113a46000830184610e06565b92915050565b6113b381610ee6565b81146113be57600080fd5b50565b6000813590506113d0816113aa565b92915050565b60008083601f8401126113ec576113eb611141565b5b8235905067ffffffffffffffff81111561140957611408611276565b5b6020830191508360018202830111156114255761142461127b565b5b9250929050565b6000806000806060858703121561144657611445610cc5565b5b600061145487828801610cf0565b9450506020611465878288016113c1565b935050604085013567ffffffffffffffff81111561148657611485610cca565b5b611492878288016113d6565b925092505092959194509250565b7f4e487b7100000000000000000000000000000000000000000000000000000000600052602260045260246000fd5b600060028204905060018216806114e757607f821691505b6020821081036114fa576114f96114a0565b5b50919050565b7f4e487b7100000000000000000000000000000000000000000000000000000000600052601160045260246000fd5b600061153a82610ccf565b91507fffffffffffffffffffffffffffffffffffffffffffffffffffffffffffffffff820361156c5761156b611500565b5b600182019050919050565b600080fd5b61158581610da3565b811461159057600080fd5b50565b6000813590506115a28161157c565b92915050565b6115b181610ec3565b81146115bc57600080fd5b50565b6000813590506115ce816115a8565b92915050565b600061010082840312156115eb576115ea611577565b5b6115f66101006111ab565b9050600061160684828501611593565b600083015250602061161a84828501611593565b602083015250604061162e84828501611593565b6040830152506060611642848285016115bf565b6060830152506080611656848285016113c1565b60808301525060a061166a84828501610cf0565b60a08301525060c061167e84828501611593565b60c08301525060e061169284828501611593565b60e08301525092915050565b600061010082840312156116b5576116b4610cc5565b5b60006116c3848285016115d4565b91505092915050565b60008190508160005260206000209050919050565b60006020601f8301049050919050565b600082821b905092915050565b60006008830261172e7fffffffffffffffffffffffffffffffffffffffffffffffffffffffffffffffff826116f1565b61173886836116f1565b95508019841693508086168417925050509392505050565b6000819050919050565b600061177561177061176b84610ccf565b611750565b610ccf565b9050919050565b6000819050919050565b61178f8361175a565b6117a361179b8261177c565b8484546116fe565b825550505050565b600090565b6117b86117ab565b6117c3818484611786565b505050565b5b818110156117e7576117dc6000826117b0565b6001810190506117c9565b5050565b601f82111561182c576117fd816116cc565b611806846116e1565b81016020851015611815578190505b611829611821856116e1565b8301826117c8565b50505b505050565b600082821c905092915050565b600061184f60001984600802611831565b1980831691505092915050565b6000611868838361183e565b9150826002028217905092915050565b61188182610fb3565b67ffffffffffffffff81111561189a5761189961114b565b5b6118a482546114cf565b6118af8282856117eb565b600060209050601f8311600181146118e257600084156118d0578287015190505b6118da858261185c565b865550611942565b601f1984166118f0866116cc565b60005b82811015611918578489015182556001820191506020850194506020810190506118f3565b868310156119355784890151611931601f89168261183e565b8355505b6001600288020188555050505b505050505050565b6000602082840312156119605761195f610cc5565b5b600061196e848285016113c1565b91505092915050565b7f4e487b7100000000000000000000000000000000000000000000000000000000600052603260045260246000fd5b6000602082840312156119bc576119bb610cc5565b5b60006119ca84828501610d4e565b91505092915050565b60006060820190506119e86000830186610e8c565b6119f56020830185610ea5565b8181036040830152611a07818461100a565b9050949350505050565b7f52444f20646f6573206e6f742065786973740000000000000000000000000000600082015250565b6000611a47601283610fbe565b9150611a5282611a11565b602082019050919050565b60006020820190508181036000830152611a7681611a3a565b9050919050565b611a8681610ee6565b82525050565b7f4f424a4543545f4c4f434b454400000000000000000000000000000000000000600082015250565b6000611ac2600d83610fbe565b9150611acd82611a8c565b602082019050919050565b6000606082019050611aed6000830185611a7d565b611afa6020830184610ea5565b8181036040830152611b0b81611ab5565b90509392505050565b7f52444f2068617320657870697265640000000000000000000000000000000000600082015250565b6000611b4a600f83610fbe565b9150611b5582611b14565b602082019050919050565b6000606082019050611b756000830185611a7d565b611b826020830184610ea5565b8181036040830152611b9381611b3d565b90509392505050565b60008160f81b9050919050565b6000611bb482611b9c565b9050919050565b611bcc611bc782610ee6565b611ba9565b82525050565b600081905092915050565b6000611be98385611bd2565b9350611bf68385846111f7565b82840190509392505050565b6000611c0e8286611bbb565b600182019150611c1f828486611bdd565b9150819050949350505050565b600081905092915050565b6000611c4282610fb3565b611c4c8185611c2c565b9350611c5c818560208601610fcf565b80840191505092915050565b7f20284f626a656374204c6f636b65642900000000000000000000000000000000600082015250565b6000611c9e601083611c2c565b9150611ca982611c68565b601082019050919050565b6000611cc08284611c37565b9150611ccb82611c91565b915081905092915050565b6000606082019050611ceb6000830186611a7d565b611cf86020830185610ea5565b8181036040830152611d0a818461100a565b9050949350505050565b6000611d1f82610ccf565b915060008203611d3257611d31611500565b5b600182039050919050565b6000604082019050611d526000830185611a7d565b611d5f6020830184610ea5565b939250505056fea2646970667358221220dd9346a375a2f6fe2388e83d8073f82d3469e3ac997194ffcfe3cf9d7d1adc1b64736f6c63430008140033",
  "linkReferences": {},
  "deployedLinkReferences": {}
}