{
  "_format": "hh-sol-artifact-1",
  "contractName": "RDORegistry",
  "sourceName": "contracts/RDORegistry.sol",
  "abi": [
    {
      "inputs": [],
      "stateMutability": "nonpayable",
      "type": "constructor"
    },
    {
      "anonymous": false,
      "inputs": [
        {
          "indexed": true,
          "internalType": "uint256",
          "name": "rdoId",
          "type": "uint256"
        },
        {
          "indexed": true,
          "internalType": "address",
          "name": "actor",
          "type": "address"
        },
        {
          "indexed": false,
          "internalType": "uint8",
          "name": "actionType",
          "type": "uint8"
        },
        {
          "indexed": false,
          "internalType": "bytes32",
          "name": "actionHash",
          "type": "bytes32"
        }
      ],
      "name": "ActionAllowed",
      "type": "event"
    },
    {
      "anonymous": false,
      "inputs": [
        {
          "indexed": true,
          "internalType": "uint256",
          "name": "rdoId",
          "type": "uint256"
        },
        {
          "indexed": true,
          "internalType": "address",
          "name": "actor",
          "type": "address"
        },
        {
          "indexed": false,
          "internalType": "uint8",
          "name": "actionType",
          "type": "uint8"
        },
        {
          "indexed": false,
          "internalType": "bytes32",
          "name": "violatedRuleHash",
          "type": "bytes32"
        },
        {
          "indexed": false,
          "internalType": "string",
          "name": "reason",
          "type": "string"
        }
      ],
      "name": "ActionRefused",
      "type": "event"
    },
    {
      "anonymous": false,
      "inputs": [
        {
          "indexed": true,
          "internalType": "uint256",
          "name": "rdoId",
          "type": "uint256"
        },
        {
          "indexed": true,
          "internalType": "address",
          "name": "creator",
          "type": "address"
        },
        {
          "indexed": false,
          "internalType": "enum RDORegistry.RDOType",
          "name": "rdoType",
          "type": "uint8"
        },
        {
          "indexed": false,
          "internalType": "bytes32",
          "name": "rulesHash",
          "type": "bytes32"
        },
        {
          "indexed": false,
          "internalType": "string",
          "name": "metadataCID",
          "type": "string"
        }
      ],
      "name": "RDOCreated",
      "type": "event"
    },
    {
      "inputs": [
        {
          "internalType": "bytes32",
          "name": "_rulesHash",
          "type": "bytes32"
        },
        {
          "internalType": "enum RDORegistry.RDOType",
          "name": "_rdoType",
          "type": "uint8"
        },
        {
          "components": [
            {
              "internalType": "bool",
              "name": "forbidCopy",
              "type": "bool"
            },
            {
              "internalType": "bool",
              "name": "forbidForward",
              "type": "bool"
            },
            {
              "internalType": "bool",
              "name": "forbidExport",
              "type": "bool"
            },
            {
              "internalType": "uint64",
              "name": "expiry",
              "type": "uint64"
            },
            {
              "internalType": "uint8",
              "name": "accessType",
              "type": "uint8"
            },
            {
              "internalType": "uint256",
              "name": "maxUses",
              "type": "uint256"
            },
            {
              "internalType": "bool",
              "name": "lockOnViolation",
              "type": "bool"
            },
            {
              "internalType": "bool",
              "name": "requireIdentity",
              "type": "bool"
            }
          ],
          "internalType": "struct RDORegistry.Rules",
          "name": "_rulesCompact",
          "type": "tuple"
        },
        {
          "internalType": "string",
          "name": "_metadataCID",
          "type": "string"
        }
      ],
      "name": "createRDO",
      "outputs": [
        {
          "internalType": "uint256",
          "name": "",
          "type": "uint256"
        }
      ],
      "stateMutability": "nonpayable",
      "type": "function"
    },
    {
      "inputs": [
        {
          "internalType": "uint256",
          "name": "",
          "type": "uint256"
        }
      ],
      "name": "rdos",
      "outputs": [
        {
          "internalType": "uint256",
          "name": "id",
          "type": "uint256"
        },
        {
          "internalType": "address",
          "name": "creator",
          "type": "address"
        },
        {
          "internalType": "enum RDORegistry.RDOType",
          "name": "rdoType",
          "type": "uint8"
        },
        {
          "internalType": "bytes32",
          "name": "rulesHash",
          "type": "bytes32"
        },
        {
          "components": [
            {
              "internalType": "bool",
              "name": "forbidCopy",
              "type": "bool"
            },
            {
              "internalType": "bool",
              "name": "forbidForward",
              "type": "bool"
            },
            {
              "internalType": "bool",
              "name": "forbidExport",
              "type": "bool"
            },
            {
              "internalType": "uint64",
              "name": "expiry",
              "type": "uint64"
            },
            {
              "internalType": "uint8",
              "name": "accessType",
              "type": "uint8"
            },
            {
              "internalType": "uint256",
              "name": "maxUses",
              "type": "uint256"
            },
            {
              "internalType": "bool",
              "name": "lockOnViolation",
              "type": "bool"
            },
            {
              "internalType": "bool",
              "name": "requireIdentity",
              "type": "bool"
            }
          ],
          "internalType": "struct RDORegistry.Rules",
          "name": "rules",
          "type": "tuple"
        },
        {
          "internalType": "string",
          "name": "metadataCID",
          "type": "string"
        },
        {
          "internalType": "uint256",
          "name": "createdAt",
          "type": "uint256"
        },
        {
          "internalType": "bool",
          "name": "locked",
          "type": "bool"
        }
      ],
      "stateMutability": "view",
      "type": "function"
    },
    {
      "inputs": [
        {
          "internalType": "uint256",
          "name": "_rdoId",
          "type": "uint256"
        },
        {
          "internalType": "uint8",
          "name": "_actionType",
          "type": "uint8"
        },
        {
          "internalType": "bytes",
          "name": "_contextData",
          "type": "bytes"
        }
      ],
      "name": "requestAction",
      "outputs": [
        {
          "internalType": "bool",
          "name": "",
          "type": "bool"
        }
      ],
      "stateMutability": "nonpayable",
      "type": "function"
    }
  ],
  "bytecode": "0x608060405234801561001057600080fd5b506119d7806100206000396000f3fe608060405234801561001057600080fd5b50600436106100415760003560e01c8063a249ced814610046578063f09deace1461007d578063f1334594146100ad575b600080fd5b610060600480360381019061005b9190610abf565b6100dd565b604051610074989796959493929190610d76565b60405180910390f35b61009760048036038101906100929190610fa9565b6102d2565b6040516100a4919061102e565b60405180910390f35b6100c760048036038101906100c291906110d5565b6105b9565b6040516100d49190611149565b60405180910390f35b60016020528060005260406000206000915090508060000154908060010160009054906101000a900473ffffffffffffffffffffffffffffffffffffffff16908060010160149054906101000a900460ff169080600201549080600301604051806101000160405290816000820160009054906101000a900460ff161515151581526020016000820160019054906101000a900460ff161515151581526020016000820160029054906101000a900460ff161515151581526020016000820160039054906101000a900467ffffffffffffffff1667ffffffffffffffff1667ffffffffffffffff16815260200160008201600b9054906101000a900460ff1660ff1660ff168152602001600182015481526020016002820160009054906101000a900460ff161515151581526020016002820160019054906101000a900460ff1615151515815250509080600601805461023690611193565b80601f016020809104026020016040519081016040528092919081815260200182805461026290611193565b80156102af5780601f10610284576101008083540402835291602001916102af565b820191906000526020600020905b81548152906001019060200180831161029257829003601f168201915b5050505050908060070154908060080160009054906101000a900460ff16905088565b60008060008154809291906102e6906111f3565b919050555060008054905060405180610100016040528082815260200161030b610a6d565b73ffffffffffffffffffffffffffffffffffffffff16815260200186600381111561033957610338610b3c565b5b8152602001878152602001858036038101906103559190611362565b815260200184815260200142815260200160001515815250600160008381526020019081526020016000206000820151816000015560208201518160010160006101000a81548173ffffffffffffffffffffffffffffffffffffffff021916908373ffffffffffffffffffffffffffffffffffffffff16021790555060408201518160010160146101000a81548160ff021916908360038111156103fc576103fb610b3c565b5b02179055506060820151816002015560808201518160030160008201518160000160006101000a81548160ff02191690831515021790555060208201518160000160016101000a81548160ff02191690831515021790555060408201518160000160026101000a81548160ff02191690831515021790555060608201518160000160036101000a81548167ffffffffffffffff021916908367ffffffffffffffff160217905550608082015181600001600b6101000a81548160ff021916908360ff16021790555060a0820151816001015560c08201518160020160006101000a81548160ff02191690831515021790555060e08201518160020160016101000a81548160ff021916908315150217905550505060a0820151816006019081610525919061153c565b5060c0820151816007015560e08201518160080160006101000a81548160ff02191690831515021790555090505061055b610a6d565b73ffffffffffffffffffffffffffffffffffffffff16817fe23504f119fed42d38072fa139960a68945b4f32e3cdb49e49b1eec43b6d2ab18789876040516105a59392919061160e565b60405180910390a380915050949350505050565b6000806001600087815260200190815260200160002090506000816000015403610618576040517f08c379a000000000000000000000000000000000000000000000000000000000815260040161060f90611698565b60405180910390fd5b8060080160009054906101000a900460ff161561069557610637610a6d565b73ffffffffffffffffffffffffffffffffffffffff16867f11778a34a618f771f2b7c45780ff639dd5b51abef43b89d11a5317f1db1d8d3e878460020154604051610683929190611713565b60405180910390a36000915050610a65565b60008160030160000160039054906101000a900467ffffffffffffffff1667ffffffffffffffff161180156106ee57508060030160000160039054906101000a900467ffffffffffffffff1667ffffffffffffffff1642115b15610759576106fb610a6d565b73ffffffffffffffffffffffffffffffffffffffff16867f11778a34a618f771f2b7c45780ff639dd5b51abef43b89d11a5317f1db1d8d3e87846002015460405161074792919061179b565b60405180910390a36000915050610a65565b60008060405180602001604052806000815250905060018760ff1614801561079257508260030160000160019054906101000a900460ff165b156107d857600191506040518060400160405280601481526020017f466f7277617264696e6720666f7262696464656e00000000000000000000000081525090506108aa565b60028760ff161480156107fc57508260030160000160009054906101000a900460ff165b1561084257600191506040518060400160405280601181526020017f436f7079696e6720666f7262696464656e00000000000000000000000000000081525090506108a9565b60038760ff1614801561086657508260030160000160029054906101000a900460ff165b156108a857600191506040518060400160405280601081526020017f4578706f727420666f7262696464656e0000000000000000000000000000000081525090505b5b5b60008787876040516020016108c19392919061183d565b60405160208183030381529060405280519060200120905082156109a4578360030160020160009054906101000a900460ff16156109395760018460080160006101000a81548160ff0219169083151502179055508160405160200161092791906118ef565b60405160208183030381529060405291505b610941610a6d565b73ffffffffffffffffffffffffffffffffffffffff16897f11778a34a618f771f2b7c45780ff639dd5b51abef43b89d11a5317f1db1d8d3e8a87600201548660405161098f93929190611911565b60405180910390a36000945050505050610a65565b600084600301600101541115610a045760018460030160010154036109e5578360030160010160008154809291906109db9061194f565b9190505550610a03565b8360030160010160008154809291906109fd9061194f565b91905055505b5b610a0c610a6d565b73ffffffffffffffffffffffffffffffffffffffff16897f2bff1b4dcf0cd8735679a6c5784e427568023c6920de90a03ff6da076ccc961e8a84604051610a54929190611978565b60405180910390a360019450505050505b949350505050565b600033905090565b6000604051905090565b600080fd5b600080fd5b6000819050919050565b610a9c81610a89565b8114610aa757600080fd5b50565b600081359050610ab981610a93565b92915050565b600060208284031215610ad557610ad4610a7f565b5b6000610ae384828501610aaa565b91505092915050565b610af581610a89565b82525050565b600073ffffffffffffffffffffffffffffffffffffffff82169050919050565b6000610b2682610afb565b9050919050565b610b3681610b1b565b82525050565b7f4e487b7100000000000000000000000000000000000000000000000000000000600052602160045260246000fd5b60048110610b7c57610b7b610b3c565b5b50565b6000819050610b8d82610b6b565b919050565b6000610b9d82610b7f565b9050919050565b610bad81610b92565b82525050565b6000819050919050565b610bc681610bb3565b82525050565b60008115159050919050565b610be181610bcc565b82525050565b600067ffffffffffffffff82169050919050565b610c0481610be7565b82525050565b600060ff82169050919050565b610c2081610c0a565b82525050565b610c2f81610a89565b82525050565b61010082016000820151610c4c6000850182610bd8565b506020820151610c5f6020850182610bd8565b506040820151610c726040850182610bd8565b506060820151610c856060850182610bfb565b506080820151610c986080850182610c17565b5060a0820151610cab60a0850182610c26565b5060c0820151610cbe60c0850182610bd8565b5060e0820151610cd160e0850182610bd8565b50505050565b600081519050919050565b600082825260208201905092915050565b60005b83811015610d11578082015181840152602081019050610cf6565b60008484015250505050565b6000601f19601f8301169050919050565b6000610d3982610cd7565b610d438185610ce2565b9350610d53818560208601610cf3565b610d5c81610d1d565b840191505092915050565b610d7081610bcc565b82525050565b60006101e082019050610d8c600083018b610aec565b610d99602083018a610b2d565b610da66040830189610ba4565b610db36060830188610bbd565b610dc06080830187610c35565b818103610180830152610dd38186610d2e565b9050610de36101a0830185610aec565b610df16101c0830184610d67565b9998505050505050505050565b610e0781610bb3565b8114610e1257600080fd5b50565b600081359050610e2481610dfe565b92915050565b60048110610e3757600080fd5b50565b600081359050610e4981610e2a565b92915050565b600080fd5b60006101008284031215610e6b57610e6a610e4f565b5b81905092915050565b600080fd5b600080fd5b7f4e487b7100000000000000000000000000000000000000000000000000000000600052604160045260246000fd5b610eb682610d1d565b810181811067ffffffffffffffff82111715610ed557610ed4610e7e565b5b80604052505050565b6000610ee8610a75565b9050610ef48282610ead565b919050565b600067ffffffffffffffff821115610f1457610f13610e7e565b5b610f1d82610d1d565b9050602081019050919050565b82818337600083830152505050565b6000610f4c610f4784610ef9565b610ede565b905082815260208101848484011115610f6857610f67610e79565b5b610f73848285610f2a565b509392505050565b600082601f830112610f9057610f8f610e74565b5b8135610fa0848260208601610f39565b91505092915050565b6000806000806101608587031215610fc457610fc3610a7f565b5b6000610fd287828801610e15565b9450506020610fe387828801610e3a565b9350506040610ff487828801610e54565b92505061014085013567ffffffffffffffff81111561101657611015610a84565b5b61102287828801610f7b565b91505092959194509250565b60006020820190506110436000830184610aec565b92915050565b61105281610c0a565b811461105d57600080fd5b50565b60008135905061106f81611049565b92915050565b600080fd5b600080fd5b60008083601f84011261109557611094610e74565b5b8235905067ffffffffffffffff8111156110b2576110b1611075565b5b6020830191508360018202830111156110ce576110cd61107a565b5b9250929050565b600080600080606085870312156110ef576110ee610a7f565b5b60006110fd87828801610aaa565b945050602061110e87828801611060565b935050604085013567ffffffffffffffff81111561112f5761112e610a84565b5b61113b8782880161107f565b925092505092959194509250565b600060208201905061115e6000830184610d67565b92915050565b7f4e487b7100000000000000000000000000000000000000000000000000000000600052602260045260246000fd5b600060028204905060018216806111ab57607f821691505b6020821081036111be576111bd611164565b5b50919050565b7f4e487b7100000000000000000000000000000000000000000000000000000000600052601160045260246000fd5b60006111fe82610a89565b91507fffffffffffffffffffffffffffffffffffffffffffffffffffffffffffffffff82036112305761122f6111c4565b5b600182019050919050565b600080fd5b61124981610bcc565b811461125457600080fd5b50565b60008135905061126681611240565b92915050565b61127581610be7565b811461128057600080fd5b50565b6000813590506112928161126c565b92915050565b600061010082840312156112af576112ae61123b565b5b6112ba610100610ede565b905060006112ca84828501611257565b60008301525060206112de84828501611257565b60208301525060406112f284828501611257565b604083015250606061130684828501611283565b606083015250608061131a84828501611060565b60808301525060a061132e84828501610aaa565b60a08301525060c061134284828501611257565b60c08301525060e061135684828501611257565b60e08301525092915050565b6000610100828403121561137957611378610a7f565b5b600061138784828501611298565b91505092915050565b60008190508160005260206000209050919050565b60006020601f8301049050919050565b600082821b905092915050565b6000600883026113f27fffffffffffffffffffffffffffffffffffffffffffffffffffffffffffffffff826113b5565b6113fc86836113b5565b95508019841693508086168417925050509392505050565b6000819050919050565b600061143961143461142f84610a89565b611414565b610a89565b9050919050565b6000819050919050565b6114538361141e565b61146761145f82611440565b8484546113c2565b825550505050565b600090565b61147c61146f565b61148781848461144a565b505050565b5b818110156114ab576114a0600082611474565b60018101905061148d565b5050565b601f8211156114f0576114c181611390565b6114ca846113a5565b810160208510156114d9578190505b6114ed6114e5856113a5565b83018261148c565b50505b505050565b600082821c905092915050565b6000611513600019846008026114f5565b1980831691505092915050565b600061152c8383611502565b9150826002028217905092915050565b61154582610cd7565b67ffffffffffffffff81111561155e5761155d610e7e565b5b6115688254611193565b6115738282856114af565b600060209050601f8311600181146115a65760008415611594578287015190505b61159e8582611520565b865550611606565b601f1984166115b486611390565b60005b828110156115dc578489015182556001820191506020850194506020810190506115b7565b868310156115f957848901516115f5601f891682611502565b8355505b6001600288020188555050505b505050505050565b60006060820190506116236000830186610ba4565b6116306020830185610bbd565b81810360408301526116428184610d2e565b9050949350505050565b7f52444f20646f6573206e6f742065786973740000000000000000000000000000600082015250565b6000611682601283610ce2565b915061168d8261164c565b602082019050919050565b600060208201905081810360008301526116b181611675565b9050919050565b6116c181610c0a565b82525050565b7f52444f206973207065726d616e656e746c79206c6f636b656400000000000000600082015250565b60006116fd601983610ce2565b9150611708826116c7565b602082019050919050565b600060608201905061172860008301856116b8565b6117356020830184610bbd565b8181036040830152611746816116f0565b90509392505050565b7f52444f2068617320657870697265640000000000000000000000000000000000600082015250565b6000611785600f83610ce2565b91506117908261174f565b602082019050919050565b60006060820190506117b060008301856116b8565b6117bd6020830184610bbd565b81810360408301526117ce81611778565b90509392505050565b60008160f81b9050919050565b60006117ef826117d7565b9050919050565b61180761180282610c0a565b6117e4565b82525050565b600081905092915050565b6000611824838561180d565b9350611831838584610f2a565b82840190509392505050565b600061184982866117f6565b60018201915061185a828486611818565b9150819050949350505050565b600081905092915050565b600061187d82610cd7565b6118878185611867565b9350611897818560208601610cf3565b80840191505092915050565b7f20284f626a656374204c6f636b65642900000000000000000000000000000000600082015250565b60006118d9601083611867565b91506118e4826118a3565b601082019050919050565b60006118fb8284611872565b9150611906826118cc565b915081905092915050565b600060608201905061192660008301866116b8565b6119336020830185610bbd565b81810360408301526119458184610d2e565b9050949350505050565b600061195a82610a89565b91506000820361196d5761196c6111c4565b5b600182039050919050565b600060408201905061198d60008301856116b8565b61199a6020830184610bbd565b939250505056fea26469706673582212207ef11f575da66a306e30a58630d78f51bc53ff63a5d7bd55546550733032d18364736f6c63430008140033",
  "linkReferences": {},
  "deployedLinkReferences": {}
}